{
  "address": "0x4488A6883aCfF68Cd2616322130c68b67c0CFadE",
  "abi": [
    {
      "inputs": [
        {
          "internalType": "address",
          "name": "_VRFCoordinator",
          "type": "address"
        },
        {
          "internalType": "address",
          "name": "_LinkToken",
          "type": "address"
        },
        {
          "internalType": "bytes32",
          "name": "_keyhash",
          "type": "bytes32"
        },
        {
          "internalType": "uint256",
          "name": "_fee",
          "type": "uint256"
        }
      ],
      "stateMutability": "nonpayable",
      "type": "constructor"
    },
    {
      "anonymous": false,
      "inputs": [
        {
          "indexed": true,
          "internalType": "address",
          "name": "owner",
          "type": "address"
        },
        {
          "indexed": true,
          "internalType": "address",
          "name": "approved",
          "type": "address"
        },
        {
          "indexed": true,
          "internalType": "uint256",
          "name": "tokenId",
          "type": "uint256"
        }
      ],
      "name": "Approval",
      "type": "event"
    },
    {
      "anonymous": false,
      "inputs": [
        {
          "indexed": true,
          "internalType": "address",
          "name": "owner",
          "type": "address"
        },
        {
          "indexed": true,
          "internalType": "address",
          "name": "operator",
          "type": "address"
        },
        {
          "indexed": false,
          "internalType": "bool",
          "name": "approved",
          "type": "bool"
        }
      ],
      "name": "ApprovalForAll",
      "type": "event"
    },
    {
      "anonymous": false,
      "inputs": [
        {
          "indexed": true,
          "internalType": "uint256",
          "name": "tokenId",
          "type": "uint256"
        },
        {
          "indexed": false,
          "internalType": "string",
          "name": "tokenURI",
          "type": "string"
        }
      ],
      "name": "CreatedRandomSVG",
      "type": "event"
    },
    {
      "anonymous": false,
      "inputs": [
        {
          "indexed": true,
          "internalType": "uint256",
          "name": "tokenId",
          "type": "uint256"
        },
        {
          "indexed": false,
          "internalType": "uint256",
          "name": "randomNumber",
          "type": "uint256"
        }
      ],
      "name": "CreatedUnfinishedRandomSVG",
      "type": "event"
    },
    {
      "anonymous": false,
      "inputs": [
        {
          "indexed": true,
          "internalType": "address",
          "name": "previousOwner",
          "type": "address"
        },
        {
          "indexed": true,
          "internalType": "address",
          "name": "newOwner",
          "type": "address"
        }
      ],
      "name": "OwnershipTransferred",
      "type": "event"
    },
    {
      "anonymous": false,
      "inputs": [
        {
          "indexed": true,
          "internalType": "address",
          "name": "from",
          "type": "address"
        },
        {
          "indexed": true,
          "internalType": "address",
          "name": "to",
          "type": "address"
        },
        {
          "indexed": true,
          "internalType": "uint256",
          "name": "tokenId",
          "type": "uint256"
        }
      ],
      "name": "Transfer",
      "type": "event"
    },
    {
      "anonymous": false,
      "inputs": [
        {
          "indexed": true,
          "internalType": "bytes32",
          "name": "requestId",
          "type": "bytes32"
        },
        {
          "indexed": true,
          "internalType": "uint256",
          "name": "tokenId",
          "type": "uint256"
        }
      ],
      "name": "requestedRandomSVG",
      "type": "event"
    },
    {
      "inputs": [
        {
          "internalType": "address",
          "name": "to",
          "type": "address"
        },
        {
          "internalType": "uint256",
          "name": "tokenId",
          "type": "uint256"
        }
      ],
      "name": "approve",
      "outputs": [],
      "stateMutability": "nonpayable",
      "type": "function"
    },
    {
      "inputs": [
        {
          "internalType": "address",
          "name": "owner",
          "type": "address"
        }
      ],
      "name": "balanceOf",
      "outputs": [
        {
          "internalType": "uint256",
          "name": "",
          "type": "uint256"
        }
      ],
      "stateMutability": "view",
      "type": "function"
    },
    {
      "inputs": [
        {
          "internalType": "uint256",
          "name": "",
          "type": "uint256"
        }
      ],
      "name": "colors",
      "outputs": [
        {
          "internalType": "string",
          "name": "",
          "type": "string"
        }
      ],
      "stateMutability": "view",
      "type": "function"
    },
    {
      "inputs": [],
      "name": "create",
      "outputs": [
        {
          "internalType": "bytes32",
          "name": "requestId",
          "type": "bytes32"
        }
      ],
      "stateMutability": "nonpayable",
      "type": "function"
    },
    {
      "inputs": [
        {
          "internalType": "uint256",
          "name": "tokenId",
          "type": "uint256"
        }
      ],
      "name": "finishMint",
      "outputs": [],
      "stateMutability": "nonpayable",
      "type": "function"
    },
    {
      "inputs": [
        {
          "internalType": "string",
          "name": "imageURI",
          "type": "string"
        }
      ],
      "name": "formatTokenURI",
      "outputs": [
        {
          "internalType": "string",
          "name": "",
          "type": "string"
        }
      ],
      "stateMutability": "pure",
      "type": "function"
    },
    {
      "inputs": [
        {
          "internalType": "uint256",
          "name": "_randomness",
          "type": "uint256"
        }
      ],
      "name": "generatePath",
      "outputs": [
        {
          "internalType": "string",
          "name": "pathSvg",
          "type": "string"
        }
      ],
      "stateMutability": "view",
      "type": "function"
    },
    {
      "inputs": [
        {
          "internalType": "uint256",
          "name": "_randomness",
          "type": "uint256"
        }
      ],
      "name": "generatePathCommand",
      "outputs": [
        {
          "internalType": "string",
          "name": "pathCommand",
          "type": "string"
        }
      ],
      "stateMutability": "view",
      "type": "function"
    },
    {
      "inputs": [
        {
          "internalType": "uint256",
          "name": "_randomness",
          "type": "uint256"
        }
      ],
      "name": "generateSVG",
      "outputs": [
        {
          "internalType": "string",
          "name": "finalSvg",
          "type": "string"
        }
      ],
      "stateMutability": "view",
      "type": "function"
    },
    {
      "inputs": [
        {
          "internalType": "uint256",
          "name": "tokenId",
          "type": "uint256"
        }
      ],
      "name": "getApproved",
      "outputs": [
        {
          "internalType": "address",
          "name": "",
          "type": "address"
        }
      ],
      "stateMutability": "view",
      "type": "function"
    },
    {
      "inputs": [
        {
          "internalType": "address",
          "name": "owner",
          "type": "address"
        },
        {
          "internalType": "address",
          "name": "operator",
          "type": "address"
        }
      ],
      "name": "isApprovedForAll",
      "outputs": [
        {
          "internalType": "bool",
          "name": "",
          "type": "bool"
        }
      ],
      "stateMutability": "view",
      "type": "function"
    },
    {
      "inputs": [],
      "name": "maxNumberOfPathCommands",
      "outputs": [
        {
          "internalType": "uint256",
          "name": "",
          "type": "uint256"
        }
      ],
      "stateMutability": "view",
      "type": "function"
    },
    {
      "inputs": [],
      "name": "maxNumberOfPaths",
      "outputs": [
        {
          "internalType": "uint256",
          "name": "",
          "type": "uint256"
        }
      ],
      "stateMutability": "view",
      "type": "function"
    },
    {
      "inputs": [],
      "name": "name",
      "outputs": [
        {
          "internalType": "string",
          "name": "",
          "type": "string"
        }
      ],
      "stateMutability": "view",
      "type": "function"
    },
    {
      "inputs": [],
      "name": "owner",
      "outputs": [
        {
          "internalType": "address",
          "name": "",
          "type": "address"
        }
      ],
      "stateMutability": "view",
      "type": "function"
    },
    {
      "inputs": [
        {
          "internalType": "uint256",
          "name": "tokenId",
          "type": "uint256"
        }
      ],
      "name": "ownerOf",
      "outputs": [
        {
          "internalType": "address",
          "name": "",
          "type": "address"
        }
      ],
      "stateMutability": "view",
      "type": "function"
    },
    {
      "inputs": [
        {
          "internalType": "uint256",
          "name": "",
          "type": "uint256"
        }
      ],
      "name": "pathCommands",
      "outputs": [
        {
          "internalType": "string",
          "name": "",
          "type": "string"
        }
      ],
      "stateMutability": "view",
      "type": "function"
    },
    {
      "inputs": [
        {
          "internalType": "bytes32",
          "name": "requestId",
          "type": "bytes32"
        },
        {
          "internalType": "uint256",
          "name": "randomness",
          "type": "uint256"
        }
      ],
      "name": "rawFulfillRandomness",
      "outputs": [],
      "stateMutability": "nonpayable",
      "type": "function"
    },
    {
      "inputs": [],
      "name": "renounceOwnership",
      "outputs": [],
      "stateMutability": "nonpayable",
      "type": "function"
    },
    {
      "inputs": [
        {
          "internalType": "bytes32",
          "name": "",
          "type": "bytes32"
        }
      ],
      "name": "requestIdToSender",
      "outputs": [
        {
          "internalType": "address",
          "name": "",
          "type": "address"
        }
      ],
      "stateMutability": "view",
      "type": "function"
    },
    {
      "inputs": [
        {
          "internalType": "bytes32",
          "name": "",
          "type": "bytes32"
        }
      ],
      "name": "requestIdToTokenId",
      "outputs": [
        {
          "internalType": "uint256",
          "name": "",
          "type": "uint256"
        }
      ],
      "stateMutability": "view",
      "type": "function"
    },
    {
      "inputs": [
        {
          "internalType": "address",
          "name": "from",
          "type": "address"
        },
        {
          "internalType": "address",
          "name": "to",
          "type": "address"
        },
        {
          "internalType": "uint256",
          "name": "tokenId",
          "type": "uint256"
        }
      ],
      "name": "safeTransferFrom",
      "outputs": [],
      "stateMutability": "nonpayable",
      "type": "function"
    },
    {
      "inputs": [
        {
          "internalType": "address",
          "name": "from",
          "type": "address"
        },
        {
          "internalType": "address",
          "name": "to",
          "type": "address"
        },
        {
          "internalType": "uint256",
          "name": "tokenId",
          "type": "uint256"
        },
        {
          "internalType": "bytes",
          "name": "_data",
          "type": "bytes"
        }
      ],
      "name": "safeTransferFrom",
      "outputs": [],
      "stateMutability": "nonpayable",
      "type": "function"
    },
    {
      "inputs": [
        {
          "internalType": "address",
          "name": "operator",
          "type": "address"
        },
        {
          "internalType": "bool",
          "name": "approved",
          "type": "bool"
        }
      ],
      "name": "setApprovalForAll",
      "outputs": [],
      "stateMutability": "nonpayable",
      "type": "function"
    },
    {
      "inputs": [],
      "name": "size",
      "outputs": [
        {
          "internalType": "uint256",
          "name": "",
          "type": "uint256"
        }
      ],
      "stateMutability": "view",
      "type": "function"
    },
    {
      "inputs": [
        {
          "internalType": "bytes4",
          "name": "interfaceId",
          "type": "bytes4"
        }
      ],
      "name": "supportsInterface",
      "outputs": [
        {
          "internalType": "bool",
          "name": "",
          "type": "bool"
        }
      ],
      "stateMutability": "view",
      "type": "function"
    },
    {
      "inputs": [
        {
          "internalType": "string",
          "name": "svg",
          "type": "string"
        }
      ],
      "name": "svgToImageURI",
      "outputs": [
        {
          "internalType": "string",
          "name": "",
          "type": "string"
        }
      ],
      "stateMutability": "pure",
      "type": "function"
    },
    {
      "inputs": [],
      "name": "symbol",
      "outputs": [
        {
          "internalType": "string",
          "name": "",
          "type": "string"
        }
      ],
      "stateMutability": "view",
      "type": "function"
    },
    {
      "inputs": [],
      "name": "tokenCounter",
      "outputs": [
        {
          "internalType": "uint256",
          "name": "",
          "type": "uint256"
        }
      ],
      "stateMutability": "view",
      "type": "function"
    },
    {
      "inputs": [
        {
          "internalType": "uint256",
          "name": "",
          "type": "uint256"
        }
      ],
      "name": "tokenIdToRandomNumber",
      "outputs": [
        {
          "internalType": "uint256",
          "name": "",
          "type": "uint256"
        }
      ],
      "stateMutability": "view",
      "type": "function"
    },
    {
      "inputs": [
        {
          "internalType": "uint256",
          "name": "tokenId",
          "type": "uint256"
        }
      ],
      "name": "tokenURI",
      "outputs": [
        {
          "internalType": "string",
          "name": "",
          "type": "string"
        }
      ],
      "stateMutability": "view",
      "type": "function"
    },
    {
      "inputs": [
        {
          "internalType": "address",
          "name": "from",
          "type": "address"
        },
        {
          "internalType": "address",
          "name": "to",
          "type": "address"
        },
        {
          "internalType": "uint256",
          "name": "tokenId",
          "type": "uint256"
        }
      ],
      "name": "transferFrom",
      "outputs": [],
      "stateMutability": "nonpayable",
      "type": "function"
    },
    {
      "inputs": [
        {
          "internalType": "address",
          "name": "newOwner",
          "type": "address"
        }
      ],
      "name": "transferOwnership",
      "outputs": [],
      "stateMutability": "nonpayable",
      "type": "function"
    },
    {
      "inputs": [],
      "name": "withdraw",
      "outputs": [],
      "stateMutability": "payable",
      "type": "function"
    }
  ],
  "transactionHash": "0xdf78d78daf7248ffaa4966720e6198547d69c21d0f2cd5cf8d4201514a6e06b7",
  "args": [
    "0xb3dCcb4Cf7a26f6cf6B120Cf5A73875B7BBc655B",
    "0x01BE23585060835E02B77ef475b0Cc51aA1e0709",
    "0x2ed0feb3e7fd2022120aa84fab1945545a9f2ffc9076fd6156fa96eaff4c1311",
    "100000000000000000"
  ],
  "solcInputHash": "7d02b587df9ebe5b060ff94fe5a3c835",
  "bytecode": "0x60c06040523480156200001157600080fd5b506040516200561638038062005616833981810160405281019062000037919062000676565b83836040518060400160405280600981526020017f52616e646f6d53564700000000000000000000000000000000000000000000008152506040518060400160405280600581526020017f72734e46540000000000000000000000000000000000000000000000000000008152508160009080519060200190620000bd92919062000445565b508060019080519060200190620000d692919062000445565b5050508173ffffffffffffffffffffffffffffffffffffffff1660a08173ffffffffffffffffffffffffffffffffffffffff1660601b815250508073ffffffffffffffffffffffffffffffffffffffff1660808173ffffffffffffffffffffffffffffffffffffffff1660601b815250505050620001696200015d6200037760201b60201c565b6200037f60201b60201c565b600060098190555081600d8190555080600e81905550600a600f81905550600a6010819055506101f460118190555060405180604001604052806040518060400160405280600181526020017f4d0000000000000000000000000000000000000000000000000000000000000081525081526020016040518060400160405280600181526020017f4c00000000000000000000000000000000000000000000000000000000000000815250815250601290600262000229929190620004d6565b506040518060a001604052806040518060400160405280600381526020017f726564000000000000000000000000000000000000000000000000000000000081525081526020016040518060400160405280600481526020017f626c75650000000000000000000000000000000000000000000000000000000081525081526020016040518060400160405280600581526020017f677265656e00000000000000000000000000000000000000000000000000000081525081526020016040518060400160405280600681526020017f79656c6c6f77000000000000000000000000000000000000000000000000000081525081526020016040518060400160405280600581526020017f626c61636b00000000000000000000000000000000000000000000000000000081525081525060139060056200036c9291906200053d565b5050505050620007dd565b600033905090565b6000600860009054906101000a900473ffffffffffffffffffffffffffffffffffffffff16905081600860006101000a81548173ffffffffffffffffffffffffffffffffffffffff021916908373ffffffffffffffffffffffffffffffffffffffff1602179055508173ffffffffffffffffffffffffffffffffffffffff168173ffffffffffffffffffffffffffffffffffffffff167f8be0079c531659141344cd1fd0a4f28419497f9722a3daafe3b4186f6b6457e060405160405180910390a35050565b82805462000453906200072a565b90600052602060002090601f016020900481019282620004775760008555620004c3565b82601f106200049257805160ff1916838001178555620004c3565b82800160010185558215620004c3579182015b82811115620004c2578251825591602001919060010190620004a5565b5b509050620004d29190620005a4565b5090565b8280548282559060005260206000209081019282156200052a579160200282015b82811115620005295782518290805190602001906200051892919062000445565b5091602001919060010190620004f7565b5b509050620005399190620005c3565b5090565b82805482825590600052602060002090810192821562000591579160200282015b82811115620005905782518290805190602001906200057f92919062000445565b50916020019190600101906200055e565b5b509050620005a09190620005c3565b5090565b5b80821115620005bf576000816000905550600101620005a5565b5090565b5b80821115620005e75760008181620005dd9190620005eb565b50600101620005c4565b5090565b508054620005f9906200072a565b6000825580601f106200060d57506200062e565b601f0160209004906000526020600020908101906200062d9190620005a4565b5b50565b60008151905062000642816200078f565b92915050565b6000815190506200065981620007a9565b92915050565b6000815190506200067081620007c3565b92915050565b600080600080608085870312156200068d57600080fd5b60006200069d8782880162000631565b9450506020620006b08782880162000631565b9350506040620006c38782880162000648565b9250506060620006d6878288016200065f565b91505092959194509250565b6000620006ef8262000700565b9050919050565b6000819050919050565b600073ffffffffffffffffffffffffffffffffffffffff82169050919050565b6000819050919050565b600060028204905060018216806200074357607f821691505b602082108114156200075a576200075962000760565b5b50919050565b7f4e487b7100000000000000000000000000000000000000000000000000000000600052602260045260246000fd5b6200079a81620006e2565b8114620007a657600080fd5b50565b620007b481620006f6565b8114620007c057600080fd5b50565b620007ce8162000720565b8114620007da57600080fd5b50565b60805160601c60a05160601c614e06620008106000396000818161148f0152612a1c015260006129e00152614e066000f3fe6080604052600436106101f95760003560e01c806371aee1931161010d578063b88d4fde116100a0578063c87b56dd1161006f578063c87b56dd14610796578063d082e381146107d3578063e985e9c5146107fe578063efc81a8c1461083b578063f2fde38b14610866576101f9565b8063b88d4fde146106c8578063bd11f69d146106f1578063c21bf36f1461072e578063c68b49d114610759576101f9565b8063955968d4116100dc578063955968d4146105fa57806395d89b41146106375780639c1cd79514610662578063a22cb4651461069f576101f9565b806371aee1931461053e5780638da5cb5b1461057b57806394985ddd146105a6578063949d225d146105cf576101f9565b806333af598911610190578063624194c71161015f578063624194c7146104475780636352211e146104705780636dcee4ca146104ad57806370a08231146104ea578063715018a614610527576101f9565b806333af5989146103ac5780633ccfd60b146103e957806342842e0e146103f357806348e896ab1461041c576101f9565b8063219c0eee116101cc578063219c0eee146102cc57806322881f881461030957806323b872dd1461034657806330d871c61461036f576101f9565b806301ffc9a7146101fe57806306fdde031461023b578063081812fc14610266578063095ea7b3146102a3575b600080fd5b34801561020a57600080fd5b506102256004803603810190610220919061358b565b61088f565b60405161023291906144d9565b60405180910390f35b34801561024757600080fd5b50610250610971565b60405161025d919061457d565b60405180910390f35b34801561027257600080fd5b5061028d6004803603810190610288919061361e565b610a03565b60405161029a9190614434565b60405180910390f35b3480156102af57600080fd5b506102ca60048036038101906102c591906134c1565b610a88565b005b3480156102d857600080fd5b506102f360048036038101906102ee9190613526565b610ba0565b6040516103009190614434565b60405180910390f35b34801561031557600080fd5b50610330600480360381019061032b9190613526565b610bd3565b60405161033d919061485f565b60405180910390f35b34801561035257600080fd5b5061036d600480360381019061036891906133bb565b610beb565b005b34801561037b57600080fd5b50610396600480360381019061039191906135dd565b610c4b565b6040516103a3919061457d565b60405180910390f35b3480156103b857600080fd5b506103d360048036038101906103ce919061361e565b610cde565b6040516103e0919061457d565b60405180910390f35b6103f1610eca565b005b3480156103ff57600080fd5b5061041a600480360381019061041591906133bb565b610f96565b005b34801561042857600080fd5b50610431610fb6565b60405161043e919061485f565b60405180910390f35b34801561045357600080fd5b5061046e6004803603810190610469919061361e565b610fbc565b005b34801561047c57600080fd5b506104976004803603810190610492919061361e565b611125565b6040516104a49190614434565b60405180910390f35b3480156104b957600080fd5b506104d460048036038101906104cf919061361e565b6111d7565b6040516104e1919061457d565b60405180910390f35b3480156104f657600080fd5b50610511600480360381019061050c9190613356565b6112d3565b60405161051e919061485f565b60405180910390f35b34801561053357600080fd5b5061053c61138b565b005b34801561054a57600080fd5b50610565600480360381019061056091906135dd565b611413565b604051610572919061457d565b60405180910390f35b34801561058757600080fd5b50610590611463565b60405161059d9190614434565b60405180910390f35b3480156105b257600080fd5b506105cd60048036038101906105c8919061354f565b61148d565b005b3480156105db57600080fd5b506105e4611529565b6040516105f1919061485f565b60405180910390f35b34801561060657600080fd5b50610621600480360381019061061c919061361e565b61152f565b60405161062e919061457d565b60405180910390f35b34801561064357600080fd5b5061064c6115db565b604051610659919061457d565b60405180910390f35b34801561066e57600080fd5b506106896004803603810190610684919061361e565b61166d565b604051610696919061485f565b60405180910390f35b3480156106ab57600080fd5b506106c660048036038101906106c19190613485565b611685565b005b3480156106d457600080fd5b506106ef60048036038101906106ea919061340a565b611806565b005b3480156106fd57600080fd5b506107186004803603810190610713919061361e565b611868565b604051610725919061457d565b60405180910390f35b34801561073a57600080fd5b50610743611914565b604051610750919061485f565b60405180910390f35b34801561076557600080fd5b50610780600480360381019061077b919061361e565b61191a565b60405161078d919061457d565b60405180910390f35b3480156107a257600080fd5b506107bd60048036038101906107b8919061361e565b611ad9565b6040516107ca919061457d565b60405180910390f35b3480156107df57600080fd5b506107e8611c2b565b6040516107f5919061485f565b60405180910390f35b34801561080a57600080fd5b506108256004803603810190610820919061337f565b611c31565b60405161083291906144d9565b60405180910390f35b34801561084757600080fd5b50610850611cc5565b60405161085d91906144f4565b60405180910390f35b34801561087257600080fd5b5061088d60048036038101906108889190613356565b611d8f565b005b60007f80ac58cd000000000000000000000000000000000000000000000000000000007bffffffffffffffffffffffffffffffffffffffffffffffffffffffff1916827bffffffffffffffffffffffffffffffffffffffffffffffffffffffff1916148061095a57507f5b5e139f000000000000000000000000000000000000000000000000000000007bffffffffffffffffffffffffffffffffffffffffffffffffffffffff1916827bffffffffffffffffffffffffffffffffffffffffffffffffffffffff1916145b8061096a575061096982611e87565b5b9050919050565b60606000805461098090614b90565b80601f01602080910402602001604051908101604052809291908181526020018280546109ac90614b90565b80156109f95780601f106109ce576101008083540402835291602001916109f9565b820191906000526020600020905b8154815290600101906020018083116109dc57829003601f168201915b5050505050905090565b6000610a0e82611ef1565b610a4d576040517f08c379a0000000000000000000000000000000000000000000000000000000008152600401610a449061477f565b60405180910390fd5b6004600083815260200190815260200160002060009054906101000a900473ffffffffffffffffffffffffffffffffffffffff169050919050565b6000610a9382611125565b90508073ffffffffffffffffffffffffffffffffffffffff168373ffffffffffffffffffffffffffffffffffffffff161415610b04576040517f08c379a0000000000000000000000000000000000000000000000000000000008152600401610afb9061481f565b60405180910390fd5b8073ffffffffffffffffffffffffffffffffffffffff16610b23611f5d565b73ffffffffffffffffffffffffffffffffffffffff161480610b525750610b5181610b4c611f5d565b611c31565b5b610b91576040517f08c379a0000000000000000000000000000000000000000000000000000000008152600401610b889061469f565b60405180910390fd5b610b9b8383611f65565b505050565b600a6020528060005260406000206000915054906101000a900473ffffffffffffffffffffffffffffffffffffffff1681565b600c6020528060005260406000206000915090505481565b610bfc610bf6611f5d565b8261201e565b610c3b576040517f08c379a0000000000000000000000000000000000000000000000000000000008152600401610c329061483f565b60405180910390fd5b610c468383836120fc565b505050565b606060006040518060400160405280601a81526020017f646174613a696d6167652f7376672b786d6c3b6261736536342c00000000000081525090506000610cb184604051602001610c9d91906142ac565b604051602081830303815290604052612358565b90508181604051602001610cc69291906142c3565b60405160208183030381529060405292505050919050565b60606000600160105484610cf29190614c1f565b610cfc9190614977565b90506040518060400160405280600981526020017f3c7061746820643d270000000000000000000000000000000000000000000000815250915060005b81811015610dbe576000610d848583601154610d559190614977565b604051602001610d6692919061487a565b6040516020818303038152906040528051906020012060001c61191a565b90508381604051602001610d999291906142c3565b6040516020818303038152906040529350508080610db690614bc2565b915050610d39565b5060006013808054905085610dd39190614c1f565b81548110610e0a577f4e487b7100000000000000000000000000000000000000000000000000000000600052603260045260246000fd5b906000526020600020018054610e1f90614b90565b80601f0160208091040260200160405190810160405280929190818152602001828054610e4b90614b90565b8015610e985780601f10610e6d57610100808354040283529160200191610e98565b820191906000526020600020905b815481529060010190602001808311610e7b57829003601f168201915b505050505090508281604051602001610eb29291906142e7565b60405160208183030381529060405292505050919050565b610ed2611f5d565b73ffffffffffffffffffffffffffffffffffffffff16610ef0611463565b73ffffffffffffffffffffffffffffffffffffffff1614610f46576040517f08c379a0000000000000000000000000000000000000000000000000000000008152600401610f3d9061479f565b60405180910390fd5b610f4e611463565b73ffffffffffffffffffffffffffffffffffffffff166108fc479081150290604051600060405180830381858888f19350505050158015610f93573d6000803e3d6000fd5b50565b610fb183838360405180602001604052806000815250611806565b505050565b60105481565b6000610fc782611ad9565b511115611009576040517f08c379a00000000000000000000000000000000000000000000000000000000081526004016110009061465f565b60405180910390fd5b806009541161104d576040517f08c379a00000000000000000000000000000000000000000000000000000000081526004016110449061471f565b60405180910390fd5b6000600b600083815260200190815260200160002054116110a3576040517f08c379a000000000000000000000000000000000000000000000000000000000815260040161109a906145ff565b60405180910390fd5b6000600b600083815260200190815260200160002054905060006110c6826111d7565b905060006110d382610c4b565b90506110e7846110e283611413565b612503565b837f15a6487b7915a7116ce2a61d43b17e9b47484b1931f3c79f2f3d139b307b389383604051611117919061457d565b60405180910390a250505050565b6000806002600084815260200190815260200160002060009054906101000a900473ffffffffffffffffffffffffffffffffffffffff169050600073ffffffffffffffffffffffffffffffffffffffff168173ffffffffffffffffffffffffffffffffffffffff1614156111ce576040517f08c379a00000000000000000000000000000000000000000000000000000000081526004016111c5906146df565b60405180910390fd5b80915050919050565b606060006001600f54846111eb9190614c1f565b6111f59190614977565b9050611202601154612577565b61120d601154612577565b60405160200161121e9291906143cd565b604051602081830303815290604052915060005b818110156112aa576000611270858360405160200161125292919061487a565b6040516020818303038152906040528051906020012060001c610cde565b905083816040516020016112859291906142c3565b60405160208183030381529060405293505080806112a290614bc2565b915050611232565b50816040516020016112bc9190614368565b604051602081830303815290604052915050919050565b60008073ffffffffffffffffffffffffffffffffffffffff168273ffffffffffffffffffffffffffffffffffffffff161415611344576040517f08c379a000000000000000000000000000000000000000000000000000000000815260040161133b906146bf565b60405180910390fd5b600360008373ffffffffffffffffffffffffffffffffffffffff1673ffffffffffffffffffffffffffffffffffffffff168152602001908152602001600020549050919050565b611393611f5d565b73ffffffffffffffffffffffffffffffffffffffff166113b1611463565b73ffffffffffffffffffffffffffffffffffffffff1614611407576040517f08c379a00000000000000000000000000000000000000000000000000000000081526004016113fe9061479f565b60405180910390fd5b611411600061274c565b565b606061143d82604051602001611429919061438a565b604051602081830303815290604052612358565b60405160200161144d9190614412565b6040516020818303038152906040529050919050565b6000600860009054906101000a900473ffffffffffffffffffffffffffffffffffffffff16905090565b7f000000000000000000000000000000000000000000000000000000000000000073ffffffffffffffffffffffffffffffffffffffff163373ffffffffffffffffffffffffffffffffffffffff161461151b576040517f08c379a0000000000000000000000000000000000000000000000000000000008152600401611512906147ff565b60405180910390fd5b6115258282612812565b5050565b60115481565b6012818154811061153f57600080fd5b90600052602060002001600091509050805461155a90614b90565b80601f016020809104026020016040519081016040528092919081815260200182805461158690614b90565b80156115d35780601f106115a8576101008083540402835291602001916115d3565b820191906000526020600020905b8154815290600101906020018083116115b657829003601f168201915b505050505081565b6060600180546115ea90614b90565b80601f016020809104026020016040519081016040528092919081815260200182805461161690614b90565b80156116635780601f1061163857610100808354040283529160200191611663565b820191906000526020600020905b81548152906001019060200180831161164657829003601f168201915b5050505050905090565b600b6020528060005260406000206000915090505481565b61168d611f5d565b73ffffffffffffffffffffffffffffffffffffffff168273ffffffffffffffffffffffffffffffffffffffff1614156116fb576040517f08c379a00000000000000000000000000000000000000000000000000000000081526004016116f29061463f565b60405180910390fd5b8060056000611708611f5d565b73ffffffffffffffffffffffffffffffffffffffff1673ffffffffffffffffffffffffffffffffffffffff16815260200190815260200160002060008473ffffffffffffffffffffffffffffffffffffffff1673ffffffffffffffffffffffffffffffffffffffff16815260200190815260200160002060006101000a81548160ff0219169083151502179055508173ffffffffffffffffffffffffffffffffffffffff166117b5611f5d565b73ffffffffffffffffffffffffffffffffffffffff167f17307eab39ab6107e8899845ad3d59bd9653f200f220920489ca2b5937696c31836040516117fa91906144d9565b60405180910390a35050565b611817611811611f5d565b8361201e565b611856576040517f08c379a000000000000000000000000000000000000000000000000000000000815260040161184d9061483f565b60405180910390fd5b611862848484846128c2565b50505050565b6013818154811061187857600080fd5b90600052602060002001600091509050805461189390614b90565b80601f01602080910402602001604051908101604052809291908181526020018280546118bf90614b90565b801561190c5780601f106118e15761010080835404028352916020019161190c565b820191906000526020600020905b8154815290600101906020018083116118ef57829003601f168201915b505050505081565b600f5481565b6060601280805490508361192e9190614c1f565b81548110611965577f4e487b7100000000000000000000000000000000000000000000000000000000600052603260045260246000fd5b90600052602060002001805461197a90614b90565b80601f01602080910402602001604051908101604052809291908181526020018280546119a690614b90565b80156119f35780601f106119c8576101008083540402835291602001916119f3565b820191906000526020600020905b8154815290600101906020018083116119d657829003601f168201915b505050505090506000601154836002601154611a0f9190614a35565b604051602001611a2092919061487a565b6040516020818303038152906040528051906020012060001c611a439190614c1f565b905060006011548460016002601154611a5c9190614a35565b611a669190614977565b604051602001611a7792919061487a565b6040516020818303038152906040528051906020012060001c611a9a9190614c1f565b905082611aa683612577565b611aaf83612577565b604051602001611ac193929190614321565b60405160208183030381529060405292505050919050565b6060611ae482611ef1565b611b23576040517f08c379a0000000000000000000000000000000000000000000000000000000008152600401611b1a9061475f565b60405180910390fd5b6000600660008481526020019081526020016000208054611b4390614b90565b80601f0160208091040260200160405190810160405280929190818152602001828054611b6f90614b90565b8015611bbc5780601f10611b9157610100808354040283529160200191611bbc565b820191906000526020600020905b815481529060010190602001808311611b9f57829003601f168201915b505050505090506000611bcd61291e565b9050600081511415611be3578192505050611c26565b600082511115611c18578082604051602001611c009291906142c3565b60405160208183030381529060405292505050611c26565b611c2184612935565b925050505b919050565b60095481565b6000600560008473ffffffffffffffffffffffffffffffffffffffff1673ffffffffffffffffffffffffffffffffffffffff16815260200190815260200160002060008373ffffffffffffffffffffffffffffffffffffffff1673ffffffffffffffffffffffffffffffffffffffff16815260200190815260200160002060009054906101000a900460ff16905092915050565b6000611cd5600d54600e546129dc565b905033600a600083815260200190815260200160002060006101000a81548173ffffffffffffffffffffffffffffffffffffffff021916908373ffffffffffffffffffffffffffffffffffffffff1602179055506000600954905080600c6000848152602001908152602001600020819055506001600954611d579190614977565b60098190555080827fb97343f1f2afc4959f818046ccae28fd7b05fcd2b7a7dc651cbb52a096cae03560405160405180910390a35090565b611d97611f5d565b73ffffffffffffffffffffffffffffffffffffffff16611db5611463565b73ffffffffffffffffffffffffffffffffffffffff1614611e0b576040517f08c379a0000000000000000000000000000000000000000000000000000000008152600401611e029061479f565b60405180910390fd5b600073ffffffffffffffffffffffffffffffffffffffff168173ffffffffffffffffffffffffffffffffffffffff161415611e7b576040517f08c379a0000000000000000000000000000000000000000000000000000000008152600401611e72906145bf565b60405180910390fd5b611e848161274c565b50565b60007f01ffc9a7000000000000000000000000000000000000000000000000000000007bffffffffffffffffffffffffffffffffffffffffffffffffffffffff1916827bffffffffffffffffffffffffffffffffffffffffffffffffffffffff1916149050919050565b60008073ffffffffffffffffffffffffffffffffffffffff166002600084815260200190815260200160002060009054906101000a900473ffffffffffffffffffffffffffffffffffffffff1673ffffffffffffffffffffffffffffffffffffffff1614159050919050565b600033905090565b816004600083815260200190815260200160002060006101000a81548173ffffffffffffffffffffffffffffffffffffffff021916908373ffffffffffffffffffffffffffffffffffffffff160217905550808273ffffffffffffffffffffffffffffffffffffffff16611fd883611125565b73ffffffffffffffffffffffffffffffffffffffff167f8c5be1e5ebec7d5bd14f71427d1e84f3dd0314c0f7b2291e5b200ac8c7c3b92560405160405180910390a45050565b600061202982611ef1565b612068576040517f08c379a000000000000000000000000000000000000000000000000000000000815260040161205f9061467f565b60405180910390fd5b600061207383611125565b90508073ffffffffffffffffffffffffffffffffffffffff168473ffffffffffffffffffffffffffffffffffffffff1614806120e257508373ffffffffffffffffffffffffffffffffffffffff166120ca84610a03565b73ffffffffffffffffffffffffffffffffffffffff16145b806120f357506120f28185611c31565b5b91505092915050565b8273ffffffffffffffffffffffffffffffffffffffff1661211c82611125565b73ffffffffffffffffffffffffffffffffffffffff1614612172576040517f08c379a0000000000000000000000000000000000000000000000000000000008152600401612169906147bf565b60405180910390fd5b600073ffffffffffffffffffffffffffffffffffffffff168273ffffffffffffffffffffffffffffffffffffffff1614156121e2576040517f08c379a00000000000000000000000000000000000000000000000000000000081526004016121d99061461f565b60405180910390fd5b6121ed838383612b3e565b6121f8600082611f65565b6001600360008573ffffffffffffffffffffffffffffffffffffffff1673ffffffffffffffffffffffffffffffffffffffff16815260200190815260200160002060008282546122489190614a8f565b925050819055506001600360008473ffffffffffffffffffffffffffffffffffffffff1673ffffffffffffffffffffffffffffffffffffffff168152602001908152602001600020600082825461229f9190614977565b92505081905550816002600083815260200190815260200160002060006101000a81548173ffffffffffffffffffffffffffffffffffffffff021916908373ffffffffffffffffffffffffffffffffffffffff160217905550808273ffffffffffffffffffffffffffffffffffffffff168473ffffffffffffffffffffffffffffffffffffffff167fddf252ad1be2c89b69c2b068fc378daa952ba7f163c4a11628f55a4df523b3ef60405160405180910390a4505050565b606060008251141561237b576040518060200160405280600081525090506124fe565b6000604051806060016040528060408152602001614d9160409139905060006003600285516123aa9190614977565b6123b49190614a04565b60046123c09190614a35565b905060006020826123d19190614977565b67ffffffffffffffff811115612410577f4e487b7100000000000000000000000000000000000000000000000000000000600052604160045260246000fd5b6040519080825280601f01601f1916602001820160405280156124425781602001600182028036833780820191505090505b509050818152600183018586518101602084015b818310156124bd576003830192508251603f8160121c1685015160f81b8252600182019150603f81600c1c1685015160f81b8252600182019150603f8160061c1685015160f81b8252600182019150603f811685015160f81b825260018201915050612456565b6003895106600181146124d757600281146124e7576124f2565b613d3d60f01b60028303526124f2565b603d60f81b60018303525b50505050508093505050505b919050565b61250c82611ef1565b61254b576040517f08c379a0000000000000000000000000000000000000000000000000000000008152600401612542906146ff565b60405180910390fd5b80600660008481526020019081526020016000209080519060200190612572929190613150565b505050565b606060008214156125bf576040518060400160405280600181526020017f30000000000000000000000000000000000000000000000000000000000000008152509050612747565b600082905060005b600082146125f15780806125da90614bc2565b915050600a826125ea9190614a04565b91506125c7565b60008167ffffffffffffffff811115612633577f4e487b7100000000000000000000000000000000000000000000000000000000600052604160045260246000fd5b6040519080825280601f01601f1916602001820160405280156126655781602001600182028036833780820191505090505b50905060008290505b6000861461273f576001816126839190614a8f565b90506000600a80886126959190614a04565b61269f9190614a35565b876126aa9190614a8f565b60306126b691906149cd565b905060008160f81b9050808484815181106126fa577f4e487b7100000000000000000000000000000000000000000000000000000000600052603260045260246000fd5b60200101907effffffffffffffffffffffffffffffffffffffffffffffffffffffffffffff1916908160001a905350600a886127369190614a04565b9750505061266e565b819450505050505b919050565b6000600860009054906101000a900473ffffffffffffffffffffffffffffffffffffffff16905081600860006101000a81548173ffffffffffffffffffffffffffffffffffffffff021916908373ffffffffffffffffffffffffffffffffffffffff1602179055508173ffffffffffffffffffffffffffffffffffffffff168173ffffffffffffffffffffffffffffffffffffffff167f8be0079c531659141344cd1fd0a4f28419497f9722a3daafe3b4186f6b6457e060405160405180910390a35050565b6000600a600084815260200190815260200160002060009054906101000a900473ffffffffffffffffffffffffffffffffffffffff1690506000600c600085815260200190815260200160002054905061286c8282612b43565b82600b600083815260200190815260200160002081905550807faad5362ce528ed941024b95d4c18dfd49b8503e1f586a5c353631d98c2af41b7846040516128b4919061485f565b60405180910390a250505050565b6128cd8484846120fc565b6128d984848484612b61565b612918576040517f08c379a000000000000000000000000000000000000000000000000000000000815260040161290f9061459f565b60405180910390fd5b50505050565b606060405180602001604052806000815250905090565b606061294082611ef1565b61297f576040517f08c379a0000000000000000000000000000000000000000000000000000000008152600401612976906147df565b60405180910390fd5b600061298961291e565b905060008151116129a957604051806020016040528060008152506129d4565b806129b384612cf8565b6040516020016129c49291906142c3565b6040516020818303038152906040525b915050919050565b60007f000000000000000000000000000000000000000000000000000000000000000073ffffffffffffffffffffffffffffffffffffffff16634000aea07f000000000000000000000000000000000000000000000000000000000000000084866000604051602001612a5092919061450f565b6040516020818303038152906040526040518463ffffffff1660e01b8152600401612a7d9392919061449b565b602060405180830381600087803b158015612a9757600080fd5b505af1158015612aab573d6000803e3d6000fd5b505050506040513d601f19601f82011682018060405250810190612acf91906134fd565b506000612af2846000306007600089815260200190815260200160002054612ea5565b905060016007600086815260200190815260200160002054612b149190614977565b6007600086815260200190815260200160002081905550612b358482612ee1565b91505092915050565b505050565b612b5d828260405180602001604052806000815250612f14565b5050565b6000612b828473ffffffffffffffffffffffffffffffffffffffff16612f6f565b15612ceb578373ffffffffffffffffffffffffffffffffffffffff1663150b7a02612bab611f5d565b8786866040518563ffffffff1660e01b8152600401612bcd949392919061444f565b602060405180830381600087803b158015612be757600080fd5b505af1925050508015612c1857506040513d601f19601f82011682018060405250810190612c1591906135b4565b60015b612c9b573d8060008114612c48576040519150601f19603f3d011682016040523d82523d6000602084013e612c4d565b606091505b50600081511415612c93576040517f08c379a0000000000000000000000000000000000000000000000000000000008152600401612c8a9061459f565b60405180910390fd5b805181602001fd5b63150b7a0260e01b7bffffffffffffffffffffffffffffffffffffffffffffffffffffffff1916817bffffffffffffffffffffffffffffffffffffffffffffffffffffffff191614915050612cf0565b600190505b949350505050565b60606000821415612d40576040518060400160405280600181526020017f30000000000000000000000000000000000000000000000000000000000000008152509050612ea0565b600082905060005b60008214612d72578080612d5b90614bc2565b915050600a82612d6b9190614a04565b9150612d48565b60008167ffffffffffffffff811115612db4577f4e487b7100000000000000000000000000000000000000000000000000000000600052604160045260246000fd5b6040519080825280601f01601f191660200182016040528015612de65781602001600182028036833780820191505090505b5090505b60008514612e9957600182612dff9190614a8f565b9150600a85612e0e9190614c1f565b6030612e1a9190614977565b60f81b818381518110612e56577f4e487b7100000000000000000000000000000000000000000000000000000000600052603260045260246000fd5b60200101907effffffffffffffffffffffffffffffffffffffffffffffffffffffffffffff1916908160001a905350600a85612e929190614a04565b9450612dea565b8093505050505b919050565b600084848484604051602001612ebe9493929190614538565b6040516020818303038152906040528051906020012060001c9050949350505050565b60008282604051602001612ef6929190614280565b60405160208183030381529060405280519060200120905092915050565b612f1e8383612f82565b612f2b6000848484612b61565b612f6a576040517f08c379a0000000000000000000000000000000000000000000000000000000008152600401612f619061459f565b60405180910390fd5b505050565b600080823b905060008111915050919050565b600073ffffffffffffffffffffffffffffffffffffffff168273ffffffffffffffffffffffffffffffffffffffff161415612ff2576040517f08c379a0000000000000000000000000000000000000000000000000000000008152600401612fe99061473f565b60405180910390fd5b612ffb81611ef1565b1561303b576040517f08c379a0000000000000000000000000000000000000000000000000000000008152600401613032906145df565b60405180910390fd5b61304760008383612b3e565b6001600360008473ffffffffffffffffffffffffffffffffffffffff1673ffffffffffffffffffffffffffffffffffffffff16815260200190815260200160002060008282546130979190614977565b92505081905550816002600083815260200190815260200160002060006101000a81548173ffffffffffffffffffffffffffffffffffffffff021916908373ffffffffffffffffffffffffffffffffffffffff160217905550808273ffffffffffffffffffffffffffffffffffffffff16600073ffffffffffffffffffffffffffffffffffffffff167fddf252ad1be2c89b69c2b068fc378daa952ba7f163c4a11628f55a4df523b3ef60405160405180910390a45050565b82805461315c90614b90565b90600052602060002090601f01602090048101928261317e57600085556131c5565b82601f1061319757805160ff19168380011785556131c5565b828001600101855582156131c5579182015b828111156131c45782518255916020019190600101906131a9565b5b5090506131d291906131d6565b5090565b5b808211156131ef5760008160009055506001016131d7565b5090565b6000613206613201846148d4565b6148a3565b90508281526020810184848401111561321e57600080fd5b613229848285614b4e565b509392505050565b600061324461323f84614904565b6148a3565b90508281526020810184848401111561325c57600080fd5b613267848285614b4e565b509392505050565b60008135905061327e81614d1d565b92915050565b60008135905061329381614d34565b92915050565b6000815190506132a881614d34565b92915050565b6000813590506132bd81614d4b565b92915050565b6000813590506132d281614d62565b92915050565b6000815190506132e781614d62565b92915050565b600082601f8301126132fe57600080fd5b813561330e8482602086016131f3565b91505092915050565b600082601f83011261332857600080fd5b8135613338848260208601613231565b91505092915050565b60008135905061335081614d79565b92915050565b60006020828403121561336857600080fd5b60006133768482850161326f565b91505092915050565b6000806040838503121561339257600080fd5b60006133a08582860161326f565b92505060206133b18582860161326f565b9150509250929050565b6000806000606084860312156133d057600080fd5b60006133de8682870161326f565b93505060206133ef8682870161326f565b925050604061340086828701613341565b9150509250925092565b6000806000806080858703121561342057600080fd5b600061342e8782880161326f565b945050602061343f8782880161326f565b935050604061345087828801613341565b925050606085013567ffffffffffffffff81111561346d57600080fd5b613479878288016132ed565b91505092959194509250565b6000806040838503121561349857600080fd5b60006134a68582860161326f565b92505060206134b785828601613284565b9150509250929050565b600080604083850312156134d457600080fd5b60006134e28582860161326f565b92505060206134f385828601613341565b9150509250929050565b60006020828403121561350f57600080fd5b600061351d84828501613299565b91505092915050565b60006020828403121561353857600080fd5b6000613546848285016132ae565b91505092915050565b6000806040838503121561356257600080fd5b6000613570858286016132ae565b925050602061358185828601613341565b9150509250929050565b60006020828403121561359d57600080fd5b60006135ab848285016132c3565b91505092915050565b6000602082840312156135c657600080fd5b60006135d4848285016132d8565b91505092915050565b6000602082840312156135ef57600080fd5b600082013567ffffffffffffffff81111561360957600080fd5b61361584828501613317565b91505092915050565b60006020828403121561363057600080fd5b600061363e84828501613341565b91505092915050565b61365081614ac3565b82525050565b61365f81614ad5565b82525050565b61366e81614ae1565b82525050565b61368561368082614ae1565b614c0b565b82525050565b600061369682614934565b6136a0818561494a565b93506136b0818560208601614b5d565b6136b981614d0c565b840191505092915050565b60006136cf8261493f565b6136d9818561495b565b93506136e9818560208601614b5d565b6136f281614d0c565b840191505092915050565b60006137088261493f565b613712818561496c565b9350613722818560208601614b5d565b80840191505092915050565b600061373b60098361496c565b91507f7b226e616d65223a2200000000000000000000000000000000000000000000006000830152600982019050919050565b600061377b60328361495b565b91507f4552433732313a207472616e7366657220746f206e6f6e20455243373231526560008301527f63656976657220696d706c656d656e74657200000000000000000000000000006020830152604082019050919050565b60006137e160268361495b565b91507f4f776e61626c653a206e6577206f776e657220697320746865207a65726f206160008301527f64647265737300000000000000000000000000000000000000000000000000006020830152604082019050919050565b6000613847601c8361495b565b91507f4552433732313a20746f6b656e20616c7265616479206d696e746564000000006000830152602082019050919050565b6000613887600a8361496c565b91507f27207374726f6b653d27000000000000000000000000000000000000000000006000830152600a82019050919050565b60006138c7602f8361495b565b91507f4e65656420746f207761697420666f722074686520436861696e6c696e6b206e60008301527f6f646520746f20726573706f6e642100000000000000000000000000000000006020830152604082019050919050565b600061392d60248361495b565b91507f4552433732313a207472616e7366657220746f20746865207a65726f2061646460008301527f72657373000000000000000000000000000000000000000000000000000000006020830152604082019050919050565b600061399360198361495b565b91507f4552433732313a20617070726f766520746f2063616c6c6572000000000000006000830152602082019050919050565b60006139d360188361495b565b91507f746f6b656e55524920697320616c7265616479207365742100000000000000006000830152602082019050919050565b6000613a13602c8361495b565b91507f4552433732313a206f70657261746f7220717565727920666f72206e6f6e657860008301527f697374656e7420746f6b656e00000000000000000000000000000000000000006020830152604082019050919050565b6000613a7960018361496c565b91507f20000000000000000000000000000000000000000000000000000000000000006000830152600182019050919050565b6000613ab960038361496c565b91507f272f3e00000000000000000000000000000000000000000000000000000000006000830152600382019050919050565b6000613af960078361496c565b91507f535647204e4654000000000000000000000000000000000000000000000000006000830152600782019050919050565b6000613b3960388361495b565b91507f4552433732313a20617070726f76652063616c6c6572206973206e6f74206f7760008301527f6e6572206e6f7220617070726f76656420666f7220616c6c00000000000000006020830152604082019050919050565b6000613b9f602a8361495b565b91507f4552433732313a2062616c616e636520717565727920666f7220746865207a6560008301527f726f2061646472657373000000000000000000000000000000000000000000006020830152604082019050919050565b6000613c0560298361495b565b91507f4552433732313a206f776e657220717565727920666f72206e6f6e657869737460008301527f656e7420746f6b656e00000000000000000000000000000000000000000000006020830152604082019050919050565b6000613c6b602e8361495b565b91507f45524337323155524953746f726167653a2055524920736574206f66206e6f6e60008301527f6578697374656e7420746f6b656e0000000000000000000000000000000000006020830152604082019050919050565b6000613cd160208361495b565b91507f546f6b656e496420686173206e6f74206265656e206d696e74656420796574216000830152602082019050919050565b6000613d1160028361496c565b91507f227d0000000000000000000000000000000000000000000000000000000000006000830152600282019050919050565b6000613d5160208361495b565b91507f4552433732313a206d696e7420746f20746865207a65726f20616464726573736000830152602082019050919050565b6000613d9160318361495b565b91507f45524337323155524953746f726167653a2055524920717565727920666f722060008301527f6e6f6e6578697374656e7420746f6b656e0000000000000000000000000000006020830152604082019050919050565b6000613df7602c8361495b565b91507f4552433732313a20617070726f76656420717565727920666f72206e6f6e657860008301527f697374656e7420746f6b656e00000000000000000000000000000000000000006020830152604082019050919050565b6000613e5d60208361495b565b91507f4f776e61626c653a2063616c6c6572206973206e6f7420746865206f776e65726000830152602082019050919050565b6000613e9d60298361495b565b91507f4552433732313a207472616e73666572206f6620746f6b656e2074686174206960008301527f73206e6f74206f776e00000000000000000000000000000000000000000000006020830152604082019050919050565b6000613f0360308361496c565b91507f3c73766720786d6c6e733d27687474703a2f2f7777772e77332e6f72672f323060008301527f30302f73766727206865696768743d27000000000000000000000000000000006020830152603082019050919050565b6000613f69602f8361495b565b91507f4552433732314d657461646174613a2055524920717565727920666f72206e6f60008301527f6e6578697374656e7420746f6b656e00000000000000000000000000000000006020830152604082019050919050565b6000613fcf601f8361495b565b91507f4f6e6c7920565246436f6f7264696e61746f722063616e2066756c66696c6c006000830152602082019050919050565b600061400f60438361496c565b91507f222c20226465736372697074696f6e223a22416e204e4654206261736564206f60008301527f6e2053564721222c202261747472696275746573223a22222c2022696d61676560208301527f223a2200000000000000000000000000000000000000000000000000000000006040830152604382019050919050565b600061409b60218361495b565b91507f4552433732313a20617070726f76616c20746f2063757272656e74206f776e6560008301527f72000000000000000000000000000000000000000000000000000000000000006020830152604082019050919050565b6000614101601d8361496c565b91507f646174613a6170706c69636174696f6e2f6a736f6e3b6261736536342c0000006000830152601d82019050919050565b600061414160318361495b565b91507f4552433732313a207472616e736665722063616c6c6572206973206e6f74206f60008301527f776e6572206e6f7220617070726f7665640000000000000000000000000000006020830152604082019050919050565b60006141a760028361496c565b91507f273e0000000000000000000000000000000000000000000000000000000000006000830152600282019050919050565b60006141e760068361496c565b91507f3c2f7376673e00000000000000000000000000000000000000000000000000006000830152600682019050919050565b600061422760098361496c565b91507f272077696474683d2700000000000000000000000000000000000000000000006000830152600982019050919050565b61426381614b37565b82525050565b61427a61427582614b37565b614c15565b82525050565b600061428c8285613674565b60208201915061429c8284614269565b6020820191508190509392505050565b60006142b882846136fd565b915081905092915050565b60006142cf82856136fd565b91506142db82846136fd565b91508190509392505050565b60006142f382856136fd565b91506142fe8261387a565b915061430a82846136fd565b915061431582613aac565b91508190509392505050565b600061432d82866136fd565b915061433882613a6c565b915061434482856136fd565b915061434f82613a6c565b915061435b82846136fd565b9150819050949350505050565b600061437482846136fd565b915061437f826141da565b915081905092915050565b60006143958261372e565b91506143a082613aec565b91506143ab82614002565b91506143b782846136fd565b91506143c282613d04565b915081905092915050565b60006143d882613ef6565b91506143e482856136fd565b91506143ef8261421a565b91506143fb82846136fd565b91506144068261419a565b91508190509392505050565b600061441d826140f4565b915061442982846136fd565b915081905092915050565b60006020820190506144496000830184613647565b92915050565b60006080820190506144646000830187613647565b6144716020830186613647565b61447e604083018561425a565b8181036060830152614490818461368b565b905095945050505050565b60006060820190506144b06000830186613647565b6144bd602083018561425a565b81810360408301526144cf818461368b565b9050949350505050565b60006020820190506144ee6000830184613656565b92915050565b60006020820190506145096000830184613665565b92915050565b60006040820190506145246000830185613665565b614531602083018461425a565b9392505050565b600060808201905061454d6000830187613665565b61455a602083018661425a565b6145676040830185613647565b614574606083018461425a565b95945050505050565b6000602082019050818103600083015261459781846136c4565b905092915050565b600060208201905081810360008301526145b88161376e565b9050919050565b600060208201905081810360008301526145d8816137d4565b9050919050565b600060208201905081810360008301526145f88161383a565b9050919050565b60006020820190508181036000830152614618816138ba565b9050919050565b6000602082019050818103600083015261463881613920565b9050919050565b6000602082019050818103600083015261465881613986565b9050919050565b60006020820190508181036000830152614678816139c6565b9050919050565b6000602082019050818103600083015261469881613a06565b9050919050565b600060208201905081810360008301526146b881613b2c565b9050919050565b600060208201905081810360008301526146d881613b92565b9050919050565b600060208201905081810360008301526146f881613bf8565b9050919050565b6000602082019050818103600083015261471881613c5e565b9050919050565b6000602082019050818103600083015261473881613cc4565b9050919050565b6000602082019050818103600083015261475881613d44565b9050919050565b6000602082019050818103600083015261477881613d84565b9050919050565b6000602082019050818103600083015261479881613dea565b9050919050565b600060208201905081810360008301526147b881613e50565b9050919050565b600060208201905081810360008301526147d881613e90565b9050919050565b600060208201905081810360008301526147f881613f5c565b9050919050565b6000602082019050818103600083015261481881613fc2565b9050919050565b600060208201905081810360008301526148388161408e565b9050919050565b6000602082019050818103600083015261485881614134565b9050919050565b6000602082019050614874600083018461425a565b92915050565b600060408201905061488f600083018561425a565b61489c602083018461425a565b9392505050565b6000604051905081810181811067ffffffffffffffff821117156148ca576148c9614cdd565b5b8060405250919050565b600067ffffffffffffffff8211156148ef576148ee614cdd565b5b601f19601f8301169050602081019050919050565b600067ffffffffffffffff82111561491f5761491e614cdd565b5b601f19601f8301169050602081019050919050565b600081519050919050565b600081519050919050565b600082825260208201905092915050565b600082825260208201905092915050565b600081905092915050565b600061498282614b37565b915061498d83614b37565b9250827fffffffffffffffffffffffffffffffffffffffffffffffffffffffffffffffff038211156149c2576149c1614c50565b5b828201905092915050565b60006149d882614b41565b91506149e383614b41565b92508260ff038211156149f9576149f8614c50565b5b828201905092915050565b6000614a0f82614b37565b9150614a1a83614b37565b925082614a2a57614a29614c7f565b5b828204905092915050565b6000614a4082614b37565b9150614a4b83614b37565b9250817fffffffffffffffffffffffffffffffffffffffffffffffffffffffffffffffff0483118215151615614a8457614a83614c50565b5b828202905092915050565b6000614a9a82614b37565b9150614aa583614b37565b925082821015614ab857614ab7614c50565b5b828203905092915050565b6000614ace82614b17565b9050919050565b60008115159050919050565b6000819050919050565b60007fffffffff0000000000000000000000000000000000000000000000000000000082169050919050565b600073ffffffffffffffffffffffffffffffffffffffff82169050919050565b6000819050919050565b600060ff82169050919050565b82818337600083830152505050565b60005b83811015614b7b578082015181840152602081019050614b60565b83811115614b8a576000848401525b50505050565b60006002820490506001821680614ba857607f821691505b60208210811415614bbc57614bbb614cae565b5b50919050565b6000614bcd82614b37565b91507fffffffffffffffffffffffffffffffffffffffffffffffffffffffffffffffff821415614c0057614bff614c50565b5b600182019050919050565b6000819050919050565b6000819050919050565b6000614c2a82614b37565b9150614c3583614b37565b925082614c4557614c44614c7f565b5b828206905092915050565b7f4e487b7100000000000000000000000000000000000000000000000000000000600052601160045260246000fd5b7f4e487b7100000000000000000000000000000000000000000000000000000000600052601260045260246000fd5b7f4e487b7100000000000000000000000000000000000000000000000000000000600052602260045260246000fd5b7f4e487b7100000000000000000000000000000000000000000000000000000000600052604160045260246000fd5b6000601f19601f8301169050919050565b614d2681614ac3565b8114614d3157600080fd5b50565b614d3d81614ad5565b8114614d4857600080fd5b50565b614d5481614ae1565b8114614d5f57600080fd5b50565b614d6b81614aeb565b8114614d7657600080fd5b50565b614d8281614b37565b8114614d8d57600080fd5b5056fe4142434445464748494a4b4c4d4e4f505152535455565758595a6162636465666768696a6b6c6d6e6f707172737475767778797a303132333435363738392b2fa2646970667358221220cbe5a9d16b8298d3a66b5e12a4133dcee14a8f59bfa9f351342ebbeb5c3194b064736f6c63430008000033",
  "devdoc": {
    "kind": "dev",
    "methods": {
      "approve(address,uint256)": {
        "details": "See {IERC721-approve}."
      },
      "balanceOf(address)": {
        "details": "See {IERC721-balanceOf}."
      },
      "getApproved(uint256)": {
        "details": "See {IERC721-getApproved}."
      },
      "isApprovedForAll(address,address)": {
        "details": "See {IERC721-isApprovedForAll}."
      },
      "name()": {
        "details": "See {IERC721Metadata-name}."
      },
      "owner()": {
        "details": "Returns the address of the current owner."
      },
      "ownerOf(uint256)": {
        "details": "See {IERC721-ownerOf}."
      },
      "renounceOwnership()": {
        "details": "Leaves the contract without owner. It will not be possible to call `onlyOwner` functions anymore. Can only be called by the current owner. NOTE: Renouncing ownership will leave the contract without an owner, thereby removing any functionality that is only available to the owner."
      },
      "safeTransferFrom(address,address,uint256)": {
        "details": "See {IERC721-safeTransferFrom}."
      },
      "safeTransferFrom(address,address,uint256,bytes)": {
        "details": "See {IERC721-safeTransferFrom}."
      },
      "setApprovalForAll(address,bool)": {
        "details": "See {IERC721-setApprovalForAll}."
      },
      "supportsInterface(bytes4)": {
        "details": "See {IERC165-supportsInterface}."
      },
      "symbol()": {
        "details": "See {IERC721Metadata-symbol}."
      },
      "tokenURI(uint256)": {
        "details": "See {IERC721Metadata-tokenURI}."
      },
      "transferFrom(address,address,uint256)": {
        "details": "See {IERC721-transferFrom}."
      },
      "transferOwnership(address)": {
        "details": "Transfers ownership of the contract to a new account (`newOwner`). Can only be called by the current owner."
      }
    },
    "version": 1
  },
  "userdoc": {
    "kind": "user",
    "methods": {},
    "version": 1
  },
  "storageLayout": {
    "storage": [
      {
        "astId": 395,
        "contract": "contracts/RandomSVG.sol:RandomSVG",
        "label": "_name",
        "offset": 0,
        "slot": "0",
        "type": "t_string_storage"
      },
      {
        "astId": 397,
        "contract": "contracts/RandomSVG.sol:RandomSVG",
        "label": "_symbol",
        "offset": 0,
        "slot": "1",
        "type": "t_string_storage"
      },
      {
        "astId": 401,
        "contract": "contracts/RandomSVG.sol:RandomSVG",
        "label": "_owners",
        "offset": 0,
        "slot": "2",
        "type": "t_mapping(t_uint256,t_address)"
      },
      {
        "astId": 405,
        "contract": "contracts/RandomSVG.sol:RandomSVG",
        "label": "_balances",
        "offset": 0,
        "slot": "3",
        "type": "t_mapping(t_address,t_uint256)"
      },
      {
        "astId": 409,
        "contract": "contracts/RandomSVG.sol:RandomSVG",
        "label": "_tokenApprovals",
        "offset": 0,
        "slot": "4",
        "type": "t_mapping(t_uint256,t_address)"
      },
      {
        "astId": 415,
        "contract": "contracts/RandomSVG.sol:RandomSVG",
        "label": "_operatorApprovals",
        "offset": 0,
        "slot": "5",
        "type": "t_mapping(t_address,t_mapping(t_address,t_bool))"
      },
      {
        "astId": 1332,
        "contract": "contracts/RandomSVG.sol:RandomSVG",
        "label": "_tokenURIs",
        "offset": 0,
        "slot": "6",
        "type": "t_mapping(t_uint256,t_string_storage)"
      },
      {
        "astId": 79,
        "contract": "contracts/RandomSVG.sol:RandomSVG",
        "label": "nonces",
        "offset": 0,
        "slot": "7",
        "type": "t_mapping(t_bytes32,t_uint256)"
      },
      {
        "astId": 273,
        "contract": "contracts/RandomSVG.sol:RandomSVG",
        "label": "_owner",
        "offset": 0,
        "slot": "8",
        "type": "t_address"
      },
      {
        "astId": 2096,
        "contract": "contracts/RandomSVG.sol:RandomSVG",
        "label": "tokenCounter",
        "offset": 0,
        "slot": "9",
        "type": "t_uint256"
      },
      {
        "astId": 2118,
        "contract": "contracts/RandomSVG.sol:RandomSVG",
        "label": "requestIdToSender",
        "offset": 0,
        "slot": "10",
        "type": "t_mapping(t_bytes32,t_address)"
      },
      {
        "astId": 2122,
        "contract": "contracts/RandomSVG.sol:RandomSVG",
        "label": "tokenIdToRandomNumber",
        "offset": 0,
        "slot": "11",
        "type": "t_mapping(t_uint256,t_uint256)"
      },
      {
        "astId": 2126,
        "contract": "contracts/RandomSVG.sol:RandomSVG",
        "label": "requestIdToTokenId",
        "offset": 0,
        "slot": "12",
        "type": "t_mapping(t_bytes32,t_uint256)"
      },
      {
        "astId": 2128,
        "contract": "contracts/RandomSVG.sol:RandomSVG",
        "label": "keyHash",
        "offset": 0,
        "slot": "13",
        "type": "t_bytes32"
      },
      {
        "astId": 2130,
        "contract": "contracts/RandomSVG.sol:RandomSVG",
        "label": "fee",
        "offset": 0,
        "slot": "14",
        "type": "t_uint256"
      },
      {
        "astId": 2132,
        "contract": "contracts/RandomSVG.sol:RandomSVG",
        "label": "maxNumberOfPaths",
        "offset": 0,
        "slot": "15",
        "type": "t_uint256"
      },
      {
        "astId": 2134,
        "contract": "contracts/RandomSVG.sol:RandomSVG",
        "label": "maxNumberOfPathCommands",
        "offset": 0,
        "slot": "16",
        "type": "t_uint256"
      },
      {
        "astId": 2136,
        "contract": "contracts/RandomSVG.sol:RandomSVG",
        "label": "size",
        "offset": 0,
        "slot": "17",
        "type": "t_uint256"
      },
      {
        "astId": 2139,
        "contract": "contracts/RandomSVG.sol:RandomSVG",
        "label": "pathCommands",
        "offset": 0,
        "slot": "18",
        "type": "t_array(t_string_storage)dyn_storage"
      },
      {
        "astId": 2142,
        "contract": "contracts/RandomSVG.sol:RandomSVG",
        "label": "colors",
        "offset": 0,
        "slot": "19",
        "type": "t_array(t_string_storage)dyn_storage"
      }
    ],
    "types": {
      "t_address": {
        "encoding": "inplace",
        "label": "address",
        "numberOfBytes": "20"
      },
      "t_array(t_string_storage)dyn_storage": {
        "base": "t_string_storage",
        "encoding": "dynamic_array",
        "label": "string[]",
        "numberOfBytes": "32"
      },
      "t_bool": {
        "encoding": "inplace",
        "label": "bool",
        "numberOfBytes": "1"
      },
      "t_bytes32": {
        "encoding": "inplace",
        "label": "bytes32",
        "numberOfBytes": "32"
      },
      "t_mapping(t_address,t_bool)": {
        "encoding": "mapping",
        "key": "t_address",
        "label": "mapping(address => bool)",
        "numberOfBytes": "32",
        "value": "t_bool"
      },
      "t_mapping(t_address,t_mapping(t_address,t_bool))": {
        "encoding": "mapping",
        "key": "t_address",
        "label": "mapping(address => mapping(address => bool))",
        "numberOfBytes": "32",
        "value": "t_mapping(t_address,t_bool)"
      },
      "t_mapping(t_address,t_uint256)": {
        "encoding": "mapping",
        "key": "t_address",
        "label": "mapping(address => uint256)",
        "numberOfBytes": "32",
        "value": "t_uint256"
      },
      "t_mapping(t_bytes32,t_address)": {
        "encoding": "mapping",
        "key": "t_bytes32",
        "label": "mapping(bytes32 => address)",
        "numberOfBytes": "32",
        "value": "t_address"
      },
      "t_mapping(t_bytes32,t_uint256)": {
        "encoding": "mapping",
        "key": "t_bytes32",
        "label": "mapping(bytes32 => uint256)",
        "numberOfBytes": "32",
        "value": "t_uint256"
      },
      "t_mapping(t_uint256,t_address)": {
        "encoding": "mapping",
        "key": "t_uint256",
        "label": "mapping(uint256 => address)",
        "numberOfBytes": "32",
        "value": "t_address"
      },
      "t_mapping(t_uint256,t_string_storage)": {
        "encoding": "mapping",
        "key": "t_uint256",
        "label": "mapping(uint256 => string)",
        "numberOfBytes": "32",
        "value": "t_string_storage"
      },
      "t_mapping(t_uint256,t_uint256)": {
        "encoding": "mapping",
        "key": "t_uint256",
        "label": "mapping(uint256 => uint256)",
        "numberOfBytes": "32",
        "value": "t_uint256"
      },
      "t_string_storage": {
        "encoding": "bytes",
        "label": "string",
        "numberOfBytes": "32"
      },
      "t_uint256": {
        "encoding": "inplace",
        "label": "uint256",
        "numberOfBytes": "32"
      }
    }
  }
}