{
  "address": "0xfDD259164fd4D4D000Ed7ab5f81603eA568c38CA",
  "abi": [
    {
      "inputs": [],
      "stateMutability": "nonpayable",
      "type": "constructor"
    },
    {
      "anonymous": false,
      "inputs": [
        {
          "indexed": true,
          "internalType": "address",
          "name": "owner",
          "type": "address"
        },
        {
          "indexed": true,
          "internalType": "address",
          "name": "approved",
          "type": "address"
        },
        {
          "indexed": true,
          "internalType": "uint256",
          "name": "tokenId",
          "type": "uint256"
        }
      ],
      "name": "Approval",
      "type": "event"
    },
    {
      "anonymous": false,
      "inputs": [
        {
          "indexed": true,
          "internalType": "address",
          "name": "owner",
          "type": "address"
        },
        {
          "indexed": true,
          "internalType": "address",
          "name": "operator",
          "type": "address"
        },
        {
          "indexed": false,
          "internalType": "bool",
          "name": "approved",
          "type": "bool"
        }
      ],
      "name": "ApprovalForAll",
      "type": "event"
    },
    {
      "anonymous": false,
      "inputs": [
        {
          "indexed": true,
          "internalType": "uint256",
          "name": "tokenId",
          "type": "uint256"
        },
        {
          "indexed": false,
          "internalType": "string",
          "name": "tokenURI",
          "type": "string"
        }
      ],
      "name": "CreateSVGNFT",
      "type": "event"
    },
    {
      "anonymous": false,
      "inputs": [
        {
          "indexed": true,
          "internalType": "address",
          "name": "from",
          "type": "address"
        },
        {
          "indexed": true,
          "internalType": "address",
          "name": "to",
          "type": "address"
        },
        {
          "indexed": true,
          "internalType": "uint256",
          "name": "tokenId",
          "type": "uint256"
        }
      ],
      "name": "Transfer",
      "type": "event"
    },
    {
      "inputs": [
        {
          "internalType": "address",
          "name": "to",
          "type": "address"
        },
        {
          "internalType": "uint256",
          "name": "tokenId",
          "type": "uint256"
        }
      ],
      "name": "approve",
      "outputs": [],
      "stateMutability": "nonpayable",
      "type": "function"
    },
    {
      "inputs": [
        {
          "internalType": "address",
          "name": "owner",
          "type": "address"
        }
      ],
      "name": "balanceOf",
      "outputs": [
        {
          "internalType": "uint256",
          "name": "",
          "type": "uint256"
        }
      ],
      "stateMutability": "view",
      "type": "function"
    },
    {
      "inputs": [
        {
          "internalType": "string",
          "name": "_svg",
          "type": "string"
        }
      ],
      "name": "create",
      "outputs": [],
      "stateMutability": "nonpayable",
      "type": "function"
    },
    {
      "inputs": [
        {
          "internalType": "string",
          "name": "_imageURI",
          "type": "string"
        }
      ],
      "name": "formatTokenURI",
      "outputs": [
        {
          "internalType": "string",
          "name": "",
          "type": "string"
        }
      ],
      "stateMutability": "pure",
      "type": "function"
    },
    {
      "inputs": [
        {
          "internalType": "uint256",
          "name": "tokenId",
          "type": "uint256"
        }
      ],
      "name": "getApproved",
      "outputs": [
        {
          "internalType": "address",
          "name": "",
          "type": "address"
        }
      ],
      "stateMutability": "view",
      "type": "function"
    },
    {
      "inputs": [
        {
          "internalType": "address",
          "name": "owner",
          "type": "address"
        },
        {
          "internalType": "address",
          "name": "operator",
          "type": "address"
        }
      ],
      "name": "isApprovedForAll",
      "outputs": [
        {
          "internalType": "bool",
          "name": "",
          "type": "bool"
        }
      ],
      "stateMutability": "view",
      "type": "function"
    },
    {
      "inputs": [],
      "name": "name",
      "outputs": [
        {
          "internalType": "string",
          "name": "",
          "type": "string"
        }
      ],
      "stateMutability": "view",
      "type": "function"
    },
    {
      "inputs": [
        {
          "internalType": "uint256",
          "name": "tokenId",
          "type": "uint256"
        }
      ],
      "name": "ownerOf",
      "outputs": [
        {
          "internalType": "address",
          "name": "",
          "type": "address"
        }
      ],
      "stateMutability": "view",
      "type": "function"
    },
    {
      "inputs": [
        {
          "internalType": "address",
          "name": "from",
          "type": "address"
        },
        {
          "internalType": "address",
          "name": "to",
          "type": "address"
        },
        {
          "internalType": "uint256",
          "name": "tokenId",
          "type": "uint256"
        }
      ],
      "name": "safeTransferFrom",
      "outputs": [],
      "stateMutability": "nonpayable",
      "type": "function"
    },
    {
      "inputs": [
        {
          "internalType": "address",
          "name": "from",
          "type": "address"
        },
        {
          "internalType": "address",
          "name": "to",
          "type": "address"
        },
        {
          "internalType": "uint256",
          "name": "tokenId",
          "type": "uint256"
        },
        {
          "internalType": "bytes",
          "name": "_data",
          "type": "bytes"
        }
      ],
      "name": "safeTransferFrom",
      "outputs": [],
      "stateMutability": "nonpayable",
      "type": "function"
    },
    {
      "inputs": [
        {
          "internalType": "address",
          "name": "operator",
          "type": "address"
        },
        {
          "internalType": "bool",
          "name": "approved",
          "type": "bool"
        }
      ],
      "name": "setApprovalForAll",
      "outputs": [],
      "stateMutability": "nonpayable",
      "type": "function"
    },
    {
      "inputs": [
        {
          "internalType": "bytes4",
          "name": "interfaceId",
          "type": "bytes4"
        }
      ],
      "name": "supportsInterface",
      "outputs": [
        {
          "internalType": "bool",
          "name": "",
          "type": "bool"
        }
      ],
      "stateMutability": "view",
      "type": "function"
    },
    {
      "inputs": [
        {
          "internalType": "string",
          "name": "_svg",
          "type": "string"
        }
      ],
      "name": "svgToImageURI",
      "outputs": [
        {
          "internalType": "string",
          "name": "",
          "type": "string"
        }
      ],
      "stateMutability": "pure",
      "type": "function"
    },
    {
      "inputs": [],
      "name": "symbol",
      "outputs": [
        {
          "internalType": "string",
          "name": "",
          "type": "string"
        }
      ],
      "stateMutability": "view",
      "type": "function"
    },
    {
      "inputs": [],
      "name": "tokenCounter",
      "outputs": [
        {
          "internalType": "uint256",
          "name": "",
          "type": "uint256"
        }
      ],
      "stateMutability": "view",
      "type": "function"
    },
    {
      "inputs": [
        {
          "internalType": "uint256",
          "name": "tokenId",
          "type": "uint256"
        }
      ],
      "name": "tokenURI",
      "outputs": [
        {
          "internalType": "string",
          "name": "",
          "type": "string"
        }
      ],
      "stateMutability": "view",
      "type": "function"
    },
    {
      "inputs": [
        {
          "internalType": "address",
          "name": "from",
          "type": "address"
        },
        {
          "internalType": "address",
          "name": "to",
          "type": "address"
        },
        {
          "internalType": "uint256",
          "name": "tokenId",
          "type": "uint256"
        }
      ],
      "name": "transferFrom",
      "outputs": [],
      "stateMutability": "nonpayable",
      "type": "function"
    }
  ],
  "transactionHash": "0x3eca6e7a5e9cdf6bda0c0abfc670ec4fb5146bca687a584b60152c575acfd156",
  "args": [],
  "solcInputHash": "5fe8c90391cc91399a73998bdae0ccab",
  "bytecode": "0x60806040523480156200001157600080fd5b506040518060400160405280600781526020017f535647204e4654000000000000000000000000000000000000000000000000008152506040518060400160405280600681526020017f7376674e46540000000000000000000000000000000000000000000000000000815250816000908051906020019062000096929190620000c0565b508060019080519060200190620000af929190620000c0565b5050506000600781905550620001d5565b828054620000ce9062000170565b90600052602060002090601f016020900481019282620000f257600085556200013e565b82601f106200010d57805160ff19168380011785556200013e565b828001600101855582156200013e579182015b828111156200013d57825182559160200191906001019062000120565b5b5090506200014d919062000151565b5090565b5b808211156200016c57600081600090555060010162000152565b5090565b600060028204905060018216806200018957607f821691505b60208210811415620001a0576200019f620001a6565b5b50919050565b7f4e487b7100000000000000000000000000000000000000000000000000000000600052602260045260246000fd5b6130df80620001e56000396000f3fe608060405234801561001057600080fd5b506004361061010b5760003560e01c806370a08231116100a2578063b6a46b3b11610071578063b6a46b3b146102dc578063b88d4fde146102f8578063c87b56dd14610314578063d082e38114610344578063e985e9c5146103625761010b565b806370a082311461024257806371aee1931461027257806395d89b41146102a2578063a22cb465146102c05761010b565b806323b872dd116100de57806323b872dd146101aa57806330d871c6146101c657806342842e0e146101f65780636352211e146102125761010b565b806301ffc9a71461011057806306fdde0314610140578063081812fc1461015e578063095ea7b31461018e575b600080fd5b61012a60048036038101906101259190611fcd565b610392565b604051610137919061299d565b60405180910390f35b610148610474565b60405161015591906129b8565b60405180910390f35b61017860048036038101906101739190612060565b610506565b6040516101859190612936565b60405180910390f35b6101a860048036038101906101a39190611f91565b61058b565b005b6101c460048036038101906101bf9190611e8b565b6106a3565b005b6101e060048036038101906101db919061201f565b610703565b6040516101ed91906129b8565b60405180910390f35b610210600480360381019061020b9190611e8b565b61079c565b005b61022c60048036038101906102279190612060565b6107bc565b6040516102399190612936565b60405180910390f35b61025c60048036038101906102579190611e26565b61086e565b6040516102699190612bda565b60405180910390f35b61028c6004803603810190610287919061201f565b610926565b60405161029991906129b8565b60405180910390f35b6102aa6109b3565b6040516102b791906129b8565b60405180910390f35b6102da60048036038101906102d59190611f55565b610a45565b005b6102f660048036038101906102f1919061201f565b610bc6565b005b610312600480360381019061030d9190611eda565b610c4f565b005b61032e60048036038101906103299190612060565b610cb1565b60405161033b91906129b8565b60405180910390f35b61034c610e03565b6040516103599190612bda565b60405180910390f35b61037c60048036038101906103779190611e4f565b610e09565b604051610389919061299d565b60405180910390f35b60007f80ac58cd000000000000000000000000000000000000000000000000000000007bffffffffffffffffffffffffffffffffffffffffffffffffffffffff1916827bffffffffffffffffffffffffffffffffffffffffffffffffffffffff1916148061045d57507f5b5e139f000000000000000000000000000000000000000000000000000000007bffffffffffffffffffffffffffffffffffffffffffffffffffffffff1916827bffffffffffffffffffffffffffffffffffffffffffffffffffffffff1916145b8061046d575061046c82610e9d565b5b9050919050565b60606000805461048390612e94565b80601f01602080910402602001604051908101604052809291908181526020018280546104af90612e94565b80156104fc5780601f106104d1576101008083540402835291602001916104fc565b820191906000526020600020905b8154815290600101906020018083116104df57829003601f168201915b5050505050905090565b600061051182610f07565b610550576040517f08c379a000000000000000000000000000000000000000000000000000000000815260040161054790612b3a565b60405180910390fd5b6004600083815260200190815260200160002060009054906101000a900473ffffffffffffffffffffffffffffffffffffffff169050919050565b6000610596826107bc565b90508073ffffffffffffffffffffffffffffffffffffffff168373ffffffffffffffffffffffffffffffffffffffff161415610607576040517f08c379a00000000000000000000000000000000000000000000000000000000081526004016105fe90612b9a565b60405180910390fd5b8073ffffffffffffffffffffffffffffffffffffffff16610626610f73565b73ffffffffffffffffffffffffffffffffffffffff16148061065557506106548161064f610f73565b610e09565b5b610694576040517f08c379a000000000000000000000000000000000000000000000000000000000815260040161068b90612a7a565b60405180910390fd5b61069e8383610f7b565b505050565b6106b46106ae610f73565b82611034565b6106f3576040517f08c379a00000000000000000000000000000000000000000000000000000000081526004016106ea90612bba565b60405180910390fd5b6106fe838383611112565b505050565b606060006040518060400160405280601a81526020017f646174613a696d6167652f7376672b786d6c3b6261736536342c000000000000815250905060006107698460405160200161075591906128ad565b60405160208183030381529060405261136e565b9050600082826040516020016107809291906128c4565b6040516020818303038152906040529050809350505050919050565b6107b783838360405180602001604052806000815250610c4f565b505050565b6000806002600084815260200190815260200160002060009054906101000a900473ffffffffffffffffffffffffffffffffffffffff169050600073ffffffffffffffffffffffffffffffffffffffff168173ffffffffffffffffffffffffffffffffffffffff161415610865576040517f08c379a000000000000000000000000000000000000000000000000000000000815260040161085c90612aba565b60405180910390fd5b80915050919050565b60008073ffffffffffffffffffffffffffffffffffffffff168273ffffffffffffffffffffffffffffffffffffffff1614156108df576040517f08c379a00000000000000000000000000000000000000000000000000000000081526004016108d690612a9a565b60405180910390fd5b600360008373ffffffffffffffffffffffffffffffffffffffff1673ffffffffffffffffffffffffffffffffffffffff168152602001908152602001600020549050919050565b606060006040518060400160405280601d81526020017f646174613a6170706c69636174696f6e2f6a736f6e3b6261736536342c00000081525090508061098b8460405160200161097791906128e8565b60405160208183030381529060405261136e565b60405160200161099c9291906128c4565b604051602081830303815290604052915050919050565b6060600180546109c290612e94565b80601f01602080910402602001604051908101604052809291908181526020018280546109ee90612e94565b8015610a3b5780601f10610a1057610100808354040283529160200191610a3b565b820191906000526020600020905b815481529060010190602001808311610a1e57829003601f168201915b5050505050905090565b610a4d610f73565b73ffffffffffffffffffffffffffffffffffffffff168273ffffffffffffffffffffffffffffffffffffffff161415610abb576040517f08c379a0000000000000000000000000000000000000000000000000000000008152600401610ab290612a3a565b60405180910390fd5b8060056000610ac8610f73565b73ffffffffffffffffffffffffffffffffffffffff1673ffffffffffffffffffffffffffffffffffffffff16815260200190815260200160002060008473ffffffffffffffffffffffffffffffffffffffff1673ffffffffffffffffffffffffffffffffffffffff16815260200190815260200160002060006101000a81548160ff0219169083151502179055508173ffffffffffffffffffffffffffffffffffffffff16610b75610f73565b73ffffffffffffffffffffffffffffffffffffffff167f17307eab39ab6107e8899845ad3d59bd9653f200f220920489ca2b5937696c3183604051610bba919061299d565b60405180910390a35050565b610bd233600754611519565b6000610bdd82610703565b90506000610bea82610926565b9050610bf860075482611537565b6007547fe11a3774b7d072913f405e8ee273b13461fdc2b88d5b8eb679837ae65508e46c82604051610c2a91906129b8565b60405180910390a260076000815480929190610c4590612ec6565b9190505550505050565b610c60610c5a610f73565b83611034565b610c9f576040517f08c379a0000000000000000000000000000000000000000000000000000000008152600401610c9690612bba565b60405180910390fd5b610cab848484846115ab565b50505050565b6060610cbc82610f07565b610cfb576040517f08c379a0000000000000000000000000000000000000000000000000000000008152600401610cf290612b1a565b60405180910390fd5b6000600660008481526020019081526020016000208054610d1b90612e94565b80601f0160208091040260200160405190810160405280929190818152602001828054610d4790612e94565b8015610d945780601f10610d6957610100808354040283529160200191610d94565b820191906000526020600020905b815481529060010190602001808311610d7757829003601f168201915b505050505090506000610da5611607565b9050600081511415610dbb578192505050610dfe565b600082511115610df0578082604051602001610dd89291906128c4565b60405160208183030381529060405292505050610dfe565b610df98461161e565b925050505b919050565b60075481565b6000600560008473ffffffffffffffffffffffffffffffffffffffff1673ffffffffffffffffffffffffffffffffffffffff16815260200190815260200160002060008373ffffffffffffffffffffffffffffffffffffffff1673ffffffffffffffffffffffffffffffffffffffff16815260200190815260200160002060009054906101000a900460ff16905092915050565b60007f01ffc9a7000000000000000000000000000000000000000000000000000000007bffffffffffffffffffffffffffffffffffffffffffffffffffffffff1916827bffffffffffffffffffffffffffffffffffffffffffffffffffffffff1916149050919050565b60008073ffffffffffffffffffffffffffffffffffffffff166002600084815260200190815260200160002060009054906101000a900473ffffffffffffffffffffffffffffffffffffffff1673ffffffffffffffffffffffffffffffffffffffff1614159050919050565b600033905090565b816004600083815260200190815260200160002060006101000a81548173ffffffffffffffffffffffffffffffffffffffff021916908373ffffffffffffffffffffffffffffffffffffffff160217905550808273ffffffffffffffffffffffffffffffffffffffff16610fee836107bc565b73ffffffffffffffffffffffffffffffffffffffff167f8c5be1e5ebec7d5bd14f71427d1e84f3dd0314c0f7b2291e5b200ac8c7c3b92560405160405180910390a45050565b600061103f82610f07565b61107e576040517f08c379a000000000000000000000000000000000000000000000000000000000815260040161107590612a5a565b60405180910390fd5b6000611089836107bc565b90508073ffffffffffffffffffffffffffffffffffffffff168473ffffffffffffffffffffffffffffffffffffffff1614806110f857508373ffffffffffffffffffffffffffffffffffffffff166110e084610506565b73ffffffffffffffffffffffffffffffffffffffff16145b8061110957506111088185610e09565b5b91505092915050565b8273ffffffffffffffffffffffffffffffffffffffff16611132826107bc565b73ffffffffffffffffffffffffffffffffffffffff1614611188576040517f08c379a000000000000000000000000000000000000000000000000000000000815260040161117f90612b5a565b60405180910390fd5b600073ffffffffffffffffffffffffffffffffffffffff168273ffffffffffffffffffffffffffffffffffffffff1614156111f8576040517f08c379a00000000000000000000000000000000000000000000000000000000081526004016111ef90612a1a565b60405180910390fd5b6112038383836116c5565b61120e600082610f7b565b6001600360008573ffffffffffffffffffffffffffffffffffffffff1673ffffffffffffffffffffffffffffffffffffffff168152602001908152602001600020600082825461125e9190612daa565b925050819055506001600360008473ffffffffffffffffffffffffffffffffffffffff1673ffffffffffffffffffffffffffffffffffffffff16815260200190815260200160002060008282546112b59190612cc9565b92505081905550816002600083815260200190815260200160002060006101000a81548173ffffffffffffffffffffffffffffffffffffffff021916908373ffffffffffffffffffffffffffffffffffffffff160217905550808273ffffffffffffffffffffffffffffffffffffffff168473ffffffffffffffffffffffffffffffffffffffff167fddf252ad1be2c89b69c2b068fc378daa952ba7f163c4a11628f55a4df523b3ef60405160405180910390a4505050565b606060008251141561139157604051806020016040528060008152509050611514565b600060405180606001604052806040815260200161306a60409139905060006003600285516113c09190612cc9565b6113ca9190612d1f565b60046113d69190612d50565b905060006020826113e79190612cc9565b67ffffffffffffffff811115611426577f4e487b7100000000000000000000000000000000000000000000000000000000600052604160045260246000fd5b6040519080825280601f01601f1916602001820160405280156114585781602001600182028036833780820191505090505b509050818152600183018586518101602084015b818310156114d3576003830192508251603f8160121c1685015160f81b8252600182019150603f81600c1c1685015160f81b8252600182019150603f8160061c1685015160f81b8252600182019150603f811685015160f81b82526001820191505061146c565b6003895106600181146114ed57600281146114fd57611508565b613d3d60f01b6002830352611508565b603d60f81b60018303525b50505050508093505050505b919050565b6115338282604051806020016040528060008152506116ca565b5050565b61154082610f07565b61157f576040517f08c379a000000000000000000000000000000000000000000000000000000000815260040161157690612ada565b60405180910390fd5b806006600084815260200190815260200160002090805190602001906115a6929190611c4a565b505050565b6115b6848484611112565b6115c284848484611725565b611601576040517f08c379a00000000000000000000000000000000000000000000000000000000081526004016115f8906129da565b60405180910390fd5b50505050565b606060405180602001604052806000815250905090565b606061162982610f07565b611668576040517f08c379a000000000000000000000000000000000000000000000000000000000815260040161165f90612b7a565b60405180910390fd5b6000611672611607565b9050600081511161169257604051806020016040528060008152506116bd565b8061169c846118bc565b6040516020016116ad9291906128c4565b6040516020818303038152906040525b915050919050565b505050565b6116d48383611a69565b6116e16000848484611725565b611720576040517f08c379a0000000000000000000000000000000000000000000000000000000008152600401611717906129da565b60405180910390fd5b505050565b60006117468473ffffffffffffffffffffffffffffffffffffffff16611c37565b156118af578373ffffffffffffffffffffffffffffffffffffffff1663150b7a0261176f610f73565b8786866040518563ffffffff1660e01b81526004016117919493929190612951565b602060405180830381600087803b1580156117ab57600080fd5b505af19250505080156117dc57506040513d601f19601f820116820180604052508101906117d99190611ff6565b60015b61185f573d806000811461180c576040519150601f19603f3d011682016040523d82523d6000602084013e611811565b606091505b50600081511415611857576040517f08c379a000000000000000000000000000000000000000000000000000000000815260040161184e906129da565b60405180910390fd5b805181602001fd5b63150b7a0260e01b7bffffffffffffffffffffffffffffffffffffffffffffffffffffffff1916817bffffffffffffffffffffffffffffffffffffffffffffffffffffffff1916149150506118b4565b600190505b949350505050565b60606000821415611904576040518060400160405280600181526020017f30000000000000000000000000000000000000000000000000000000000000008152509050611a64565b600082905060005b6000821461193657808061191f90612ec6565b915050600a8261192f9190612d1f565b915061190c565b60008167ffffffffffffffff811115611978577f4e487b7100000000000000000000000000000000000000000000000000000000600052604160045260246000fd5b6040519080825280601f01601f1916602001820160405280156119aa5781602001600182028036833780820191505090505b5090505b60008514611a5d576001826119c39190612daa565b9150600a856119d29190612f0f565b60306119de9190612cc9565b60f81b818381518110611a1a577f4e487b7100000000000000000000000000000000000000000000000000000000600052603260045260246000fd5b60200101907effffffffffffffffffffffffffffffffffffffffffffffffffffffffffffff1916908160001a905350600a85611a569190612d1f565b94506119ae565b8093505050505b919050565b600073ffffffffffffffffffffffffffffffffffffffff168273ffffffffffffffffffffffffffffffffffffffff161415611ad9576040517f08c379a0000000000000000000000000000000000000000000000000000000008152600401611ad090612afa565b60405180910390fd5b611ae281610f07565b15611b22576040517f08c379a0000000000000000000000000000000000000000000000000000000008152600401611b19906129fa565b60405180910390fd5b611b2e600083836116c5565b6001600360008473ffffffffffffffffffffffffffffffffffffffff1673ffffffffffffffffffffffffffffffffffffffff1681526020019081526020016000206000828254611b7e9190612cc9565b92505081905550816002600083815260200190815260200160002060006101000a81548173ffffffffffffffffffffffffffffffffffffffff021916908373ffffffffffffffffffffffffffffffffffffffff160217905550808273ffffffffffffffffffffffffffffffffffffffff16600073ffffffffffffffffffffffffffffffffffffffff167fddf252ad1be2c89b69c2b068fc378daa952ba7f163c4a11628f55a4df523b3ef60405160405180910390a45050565b600080823b905060008111915050919050565b828054611c5690612e94565b90600052602060002090601f016020900481019282611c785760008555611cbf565b82601f10611c9157805160ff1916838001178555611cbf565b82800160010185558215611cbf579182015b82811115611cbe578251825591602001919060010190611ca3565b5b509050611ccc9190611cd0565b5090565b5b80821115611ce9576000816000905550600101611cd1565b5090565b6000611d00611cfb84612c26565b612bf5565b905082815260208101848484011115611d1857600080fd5b611d23848285612e52565b509392505050565b6000611d3e611d3984612c56565b612bf5565b905082815260208101848484011115611d5657600080fd5b611d61848285612e52565b509392505050565b600081359050611d788161300d565b92915050565b600081359050611d8d81613024565b92915050565b600081359050611da28161303b565b92915050565b600081519050611db78161303b565b92915050565b600082601f830112611dce57600080fd5b8135611dde848260208601611ced565b91505092915050565b600082601f830112611df857600080fd5b8135611e08848260208601611d2b565b91505092915050565b600081359050611e2081613052565b92915050565b600060208284031215611e3857600080fd5b6000611e4684828501611d69565b91505092915050565b60008060408385031215611e6257600080fd5b6000611e7085828601611d69565b9250506020611e8185828601611d69565b9150509250929050565b600080600060608486031215611ea057600080fd5b6000611eae86828701611d69565b9350506020611ebf86828701611d69565b9250506040611ed086828701611e11565b9150509250925092565b60008060008060808587031215611ef057600080fd5b6000611efe87828801611d69565b9450506020611f0f87828801611d69565b9350506040611f2087828801611e11565b925050606085013567ffffffffffffffff811115611f3d57600080fd5b611f4987828801611dbd565b91505092959194509250565b60008060408385031215611f6857600080fd5b6000611f7685828601611d69565b9250506020611f8785828601611d7e565b9150509250929050565b60008060408385031215611fa457600080fd5b6000611fb285828601611d69565b9250506020611fc385828601611e11565b9150509250929050565b600060208284031215611fdf57600080fd5b6000611fed84828501611d93565b91505092915050565b60006020828403121561200857600080fd5b600061201684828501611da8565b91505092915050565b60006020828403121561203157600080fd5b600082013567ffffffffffffffff81111561204b57600080fd5b61205784828501611de7565b91505092915050565b60006020828403121561207257600080fd5b600061208084828501611e11565b91505092915050565b61209281612dde565b82525050565b6120a181612df0565b82525050565b60006120b282612c86565b6120bc8185612c9c565b93506120cc818560208601612e61565b6120d581612ffc565b840191505092915050565b60006120eb82612c91565b6120f58185612cad565b9350612105818560208601612e61565b61210e81612ffc565b840191505092915050565b600061212482612c91565b61212e8185612cbe565b935061213e818560208601612e61565b80840191505092915050565b6000612157603283612cad565b91507f4552433732313a207472616e7366657220746f206e6f6e20455243373231526560008301527f63656976657220696d706c656d656e74657200000000000000000000000000006020830152604082019050919050565b60006121bd601c83612cad565b91507f4552433732313a20746f6b656e20616c7265616479206d696e746564000000006000830152602082019050919050565b60006121fd601483612cbe565b91507f7b226e616d65223a2022535647204e4654222c200000000000000000000000006000830152601482019050919050565b600061223d602483612cad565b91507f4552433732313a207472616e7366657220746f20746865207a65726f2061646460008301527f72657373000000000000000000000000000000000000000000000000000000006020830152604082019050919050565b60006122a3601983612cad565b91507f4552433732313a20617070726f766520746f2063616c6c6572000000000000006000830152602082019050919050565b60006122e3602c83612cad565b91507f4552433732313a206f70657261746f7220717565727920666f72206e6f6e657860008301527f697374656e7420746f6b656e00000000000000000000000000000000000000006020830152604082019050919050565b6000612349603883612cad565b91507f4552433732313a20617070726f76652063616c6c6572206973206e6f74206f7760008301527f6e6572206e6f7220617070726f76656420666f7220616c6c00000000000000006020830152604082019050919050565b60006123af602a83612cad565b91507f4552433732313a2062616c616e636520717565727920666f7220746865207a6560008301527f726f2061646472657373000000000000000000000000000000000000000000006020830152604082019050919050565b6000612415602983612cad565b91507f4552433732313a206f776e657220717565727920666f72206e6f6e657869737460008301527f656e7420746f6b656e00000000000000000000000000000000000000000000006020830152604082019050919050565b600061247b602e83612cad565b91507f45524337323155524953746f726167653a2055524920736574206f66206e6f6e60008301527f6578697374656e7420746f6b656e0000000000000000000000000000000000006020830152604082019050919050565b60006124e1602a83612cbe565b91507f226465736372697074696f6e223a2022416e204e4654206261736564206f6e2060008301527f616e2053564721222c20000000000000000000000000000000000000000000006020830152602a82019050919050565b6000612547600283612cbe565b91507f227d0000000000000000000000000000000000000000000000000000000000006000830152600282019050919050565b6000612587602083612cad565b91507f4552433732313a206d696e7420746f20746865207a65726f20616464726573736000830152602082019050919050565b60006125c7603183612cad565b91507f45524337323155524953746f726167653a2055524920717565727920666f722060008301527f6e6f6e6578697374656e7420746f6b656e0000000000000000000000000000006020830152604082019050919050565b600061262d602c83612cad565b91507f4552433732313a20617070726f76656420717565727920666f72206e6f6e657860008301527f697374656e7420746f6b656e00000000000000000000000000000000000000006020830152604082019050919050565b6000612693602983612cad565b91507f4552433732313a207472616e73666572206f6620746f6b656e2074686174206960008301527f73206e6f74206f776e00000000000000000000000000000000000000000000006020830152604082019050919050565b60006126f9602f83612cad565b91507f4552433732314d657461646174613a2055524920717565727920666f72206e6f60008301527f6e6578697374656e7420746f6b656e00000000000000000000000000000000006020830152604082019050919050565b600061275f601283612cbe565b91507f2261747472696275746573223a2022222c2000000000000000000000000000006000830152601282019050919050565b600061279f602183612cad565b91507f4552433732313a20617070726f76616c20746f2063757272656e74206f776e6560008301527f72000000000000000000000000000000000000000000000000000000000000006020830152604082019050919050565b6000612805603183612cad565b91507f4552433732313a207472616e736665722063616c6c6572206973206e6f74206f60008301527f776e6572206e6f7220617070726f7665640000000000000000000000000000006020830152604082019050919050565b600061286b600a83612cbe565b91507f22696d616765223a2022000000000000000000000000000000000000000000006000830152600a82019050919050565b6128a781612e48565b82525050565b60006128b98284612119565b915081905092915050565b60006128d08285612119565b91506128dc8284612119565b91508190509392505050565b60006128f3826121f0565b91506128fe826124d4565b915061290982612752565b91506129148261285e565b91506129208284612119565b915061292b8261253a565b915081905092915050565b600060208201905061294b6000830184612089565b92915050565b60006080820190506129666000830187612089565b6129736020830186612089565b612980604083018561289e565b818103606083015261299281846120a7565b905095945050505050565b60006020820190506129b26000830184612098565b92915050565b600060208201905081810360008301526129d281846120e0565b905092915050565b600060208201905081810360008301526129f38161214a565b9050919050565b60006020820190508181036000830152612a13816121b0565b9050919050565b60006020820190508181036000830152612a3381612230565b9050919050565b60006020820190508181036000830152612a5381612296565b9050919050565b60006020820190508181036000830152612a73816122d6565b9050919050565b60006020820190508181036000830152612a938161233c565b9050919050565b60006020820190508181036000830152612ab3816123a2565b9050919050565b60006020820190508181036000830152612ad381612408565b9050919050565b60006020820190508181036000830152612af38161246e565b9050919050565b60006020820190508181036000830152612b138161257a565b9050919050565b60006020820190508181036000830152612b33816125ba565b9050919050565b60006020820190508181036000830152612b5381612620565b9050919050565b60006020820190508181036000830152612b7381612686565b9050919050565b60006020820190508181036000830152612b93816126ec565b9050919050565b60006020820190508181036000830152612bb381612792565b9050919050565b60006020820190508181036000830152612bd3816127f8565b9050919050565b6000602082019050612bef600083018461289e565b92915050565b6000604051905081810181811067ffffffffffffffff82111715612c1c57612c1b612fcd565b5b8060405250919050565b600067ffffffffffffffff821115612c4157612c40612fcd565b5b601f19601f8301169050602081019050919050565b600067ffffffffffffffff821115612c7157612c70612fcd565b5b601f19601f8301169050602081019050919050565b600081519050919050565b600081519050919050565b600082825260208201905092915050565b600082825260208201905092915050565b600081905092915050565b6000612cd482612e48565b9150612cdf83612e48565b9250827fffffffffffffffffffffffffffffffffffffffffffffffffffffffffffffffff03821115612d1457612d13612f40565b5b828201905092915050565b6000612d2a82612e48565b9150612d3583612e48565b925082612d4557612d44612f6f565b5b828204905092915050565b6000612d5b82612e48565b9150612d6683612e48565b9250817fffffffffffffffffffffffffffffffffffffffffffffffffffffffffffffffff0483118215151615612d9f57612d9e612f40565b5b828202905092915050565b6000612db582612e48565b9150612dc083612e48565b925082821015612dd357612dd2612f40565b5b828203905092915050565b6000612de982612e28565b9050919050565b60008115159050919050565b60007fffffffff0000000000000000000000000000000000000000000000000000000082169050919050565b600073ffffffffffffffffffffffffffffffffffffffff82169050919050565b6000819050919050565b82818337600083830152505050565b60005b83811015612e7f578082015181840152602081019050612e64565b83811115612e8e576000848401525b50505050565b60006002820490506001821680612eac57607f821691505b60208210811415612ec057612ebf612f9e565b5b50919050565b6000612ed182612e48565b91507fffffffffffffffffffffffffffffffffffffffffffffffffffffffffffffffff821415612f0457612f03612f40565b5b600182019050919050565b6000612f1a82612e48565b9150612f2583612e48565b925082612f3557612f34612f6f565b5b828206905092915050565b7f4e487b7100000000000000000000000000000000000000000000000000000000600052601160045260246000fd5b7f4e487b7100000000000000000000000000000000000000000000000000000000600052601260045260246000fd5b7f4e487b7100000000000000000000000000000000000000000000000000000000600052602260045260246000fd5b7f4e487b7100000000000000000000000000000000000000000000000000000000600052604160045260246000fd5b6000601f19601f8301169050919050565b61301681612dde565b811461302157600080fd5b50565b61302d81612df0565b811461303857600080fd5b50565b61304481612dfc565b811461304f57600080fd5b50565b61305b81612e48565b811461306657600080fd5b5056fe4142434445464748494a4b4c4d4e4f505152535455565758595a6162636465666768696a6b6c6d6e6f707172737475767778797a303132333435363738392b2fa2646970667358221220e0e64342ab56ab3f6aa544696a08df72ab810c0ac4ff4964e31d59247a64f3b264736f6c63430008000033",
  "devdoc": {
    "kind": "dev",
    "methods": {
      "approve(address,uint256)": {
        "details": "See {IERC721-approve}."
      },
      "balanceOf(address)": {
        "details": "See {IERC721-balanceOf}."
      },
      "getApproved(uint256)": {
        "details": "See {IERC721-getApproved}."
      },
      "isApprovedForAll(address,address)": {
        "details": "See {IERC721-isApprovedForAll}."
      },
      "name()": {
        "details": "See {IERC721Metadata-name}."
      },
      "ownerOf(uint256)": {
        "details": "See {IERC721-ownerOf}."
      },
      "safeTransferFrom(address,address,uint256)": {
        "details": "See {IERC721-safeTransferFrom}."
      },
      "safeTransferFrom(address,address,uint256,bytes)": {
        "details": "See {IERC721-safeTransferFrom}."
      },
      "setApprovalForAll(address,bool)": {
        "details": "See {IERC721-setApprovalForAll}."
      },
      "supportsInterface(bytes4)": {
        "details": "See {IERC165-supportsInterface}."
      },
      "symbol()": {
        "details": "See {IERC721Metadata-symbol}."
      },
      "tokenURI(uint256)": {
        "details": "See {IERC721Metadata-tokenURI}."
      },
      "transferFrom(address,address,uint256)": {
        "details": "See {IERC721-transferFrom}."
      }
    },
    "version": 1
  },
  "userdoc": {
    "kind": "user",
    "methods": {
      "formatTokenURI(string)": {
        "notice": "Helper Function - take an Image URI and create the full token URI JSON object Steps Taken: - Build a JSON object with all the fields we want in the metadata - has to return a base64 encoded object though"
      },
      "svgToImageURI(string)": {
        "notice": "Helper Function - take an SVG and create a distinct URI Steps Taken: - take the svg and base 64 encode it - add it to the string \"data:image/svg+xml;base64,<Base64EncodingOfSVG>\""
      }
    },
    "version": 1
  },
  "storageLayout": {
    "storage": [
      {
        "astId": 25,
        "contract": "contracts/SVGNFT.sol:SVGNFT",
        "label": "_name",
        "offset": 0,
        "slot": "0",
        "type": "t_string_storage"
      },
      {
        "astId": 27,
        "contract": "contracts/SVGNFT.sol:SVGNFT",
        "label": "_symbol",
        "offset": 0,
        "slot": "1",
        "type": "t_string_storage"
      },
      {
        "astId": 31,
        "contract": "contracts/SVGNFT.sol:SVGNFT",
        "label": "_owners",
        "offset": 0,
        "slot": "2",
        "type": "t_mapping(t_uint256,t_address)"
      },
      {
        "astId": 35,
        "contract": "contracts/SVGNFT.sol:SVGNFT",
        "label": "_balances",
        "offset": 0,
        "slot": "3",
        "type": "t_mapping(t_address,t_uint256)"
      },
      {
        "astId": 39,
        "contract": "contracts/SVGNFT.sol:SVGNFT",
        "label": "_tokenApprovals",
        "offset": 0,
        "slot": "4",
        "type": "t_mapping(t_uint256,t_address)"
      },
      {
        "astId": 45,
        "contract": "contracts/SVGNFT.sol:SVGNFT",
        "label": "_operatorApprovals",
        "offset": 0,
        "slot": "5",
        "type": "t_mapping(t_address,t_mapping(t_address,t_bool))"
      },
      {
        "astId": 962,
        "contract": "contracts/SVGNFT.sol:SVGNFT",
        "label": "_tokenURIs",
        "offset": 0,
        "slot": "6",
        "type": "t_mapping(t_uint256,t_string_storage)"
      },
      {
        "astId": 1720,
        "contract": "contracts/SVGNFT.sol:SVGNFT",
        "label": "tokenCounter",
        "offset": 0,
        "slot": "7",
        "type": "t_uint256"
      }
    ],
    "types": {
      "t_address": {
        "encoding": "inplace",
        "label": "address",
        "numberOfBytes": "20"
      },
      "t_bool": {
        "encoding": "inplace",
        "label": "bool",
        "numberOfBytes": "1"
      },
      "t_mapping(t_address,t_bool)": {
        "encoding": "mapping",
        "key": "t_address",
        "label": "mapping(address => bool)",
        "numberOfBytes": "32",
        "value": "t_bool"
      },
      "t_mapping(t_address,t_mapping(t_address,t_bool))": {
        "encoding": "mapping",
        "key": "t_address",
        "label": "mapping(address => mapping(address => bool))",
        "numberOfBytes": "32",
        "value": "t_mapping(t_address,t_bool)"
      },
      "t_mapping(t_address,t_uint256)": {
        "encoding": "mapping",
        "key": "t_address",
        "label": "mapping(address => uint256)",
        "numberOfBytes": "32",
        "value": "t_uint256"
      },
      "t_mapping(t_uint256,t_address)": {
        "encoding": "mapping",
        "key": "t_uint256",
        "label": "mapping(uint256 => address)",
        "numberOfBytes": "32",
        "value": "t_address"
      },
      "t_mapping(t_uint256,t_string_storage)": {
        "encoding": "mapping",
        "key": "t_uint256",
        "label": "mapping(uint256 => string)",
        "numberOfBytes": "32",
        "value": "t_string_storage"
      },
      "t_string_storage": {
        "encoding": "bytes",
        "label": "string",
        "numberOfBytes": "32"
      },
      "t_uint256": {
        "encoding": "inplace",
        "label": "uint256",
        "numberOfBytes": "32"
      }
    }
  }
}